:1000000012C02CC02BC02AC029C0FCC027C026C0EB
:1000100025C024C023C093C056C02DC01FC01EC021
:100020001DC01CC01BC011241FBECFE5D4E0DEBF25
:10003000CDBF10E0A0E6B0E0E8E1F6E002C0059038
:100040000D92A236B107D9F710E0A2E6B0E001C0E8
:100050001D92A63AB107E1F72CD1DCC2D1CF90BDF9
:1000600089B988E18AB986E880BD8A9A929A8AB16C
:10007000886D8AB908951F920F920FB60F921124BE
:1000800092980F900FBE0F901F901895282F909167
:1000900066009F5F9F70809167009817E1F3E92FDA
:1000A000F0E0E859FF4F208390936600559A089539
:1000B000CF93DF93EC0101C0E9DF89918823E1F759
:1000C000DF91CF9108951F920F920FB60F921124D6
:1000D0008F939F93EF93FF939091660080916700B9
:1000E000981771F0809167008F5F8F708093670021
:1000F000E0916700F0E0E859FF4F80818CB901C0C2
:100100005598FF91EF919F918F910F900FBE0F9097
:100110001F9018959091780080917900981711F4AC
:1001200080E00895809179008F5F8F7180937900CE
:10013000E0917900F0E0E658FF4F808108951F922A
:100140000F920FB60F9211248F939F93EF93FF930B
:100150009CB1E0917800EF5FEF7180917900E81732
:1001600031F0E0937800F0E0E658FF4F9083FF9184
:10017000EF919F918F910F900FBE0F901F90189548
:100180000F931F93DF93CF93CDB7DEB761970FB671
:10019000F894DEBF0FBECDBFAB018E010F5F1F4FC6
:1001A000B80109D2C80184DF61960FB6F894DEBFAA
:1001B0000FBECDBFCF91DF911F910F91089588237E
:1001C00049F482E08A95F1F7C29A8AE18A95F1F7BB
:1001D000C2980AC0813061F482E08A95F1F7979A5B
:1001E0008AE18A95F1F7979885E38A95F1F7089562
:1001F000823039F48A95F1F7969A8AE18A95F1F777
:10020000969808951F920F920FB60F9211242F9374
:100210003F935F936F937F938F939F93AF93BF931E
:100220000EB406FE07C086B597B590939B008093E9
:100230009A002DC086B597B520919A0030919B0009
:10024000821B930B9093A5008093A4008091A4003F
:100250009091A5006AE370E09AD16093A200709338
:10026000A30080916200882329F46093A00070931A
:10027000A1000DC0813029F460939C0070939D0013
:1002800006C0823021F460939E0070939F008EB56B
:1002900090E489278EBDBF91AF919F918F917F91FF
:1002A0006F915F913F912F910F900FBE0F901F9014
:1002B0001895EF92FF920F931F93CF93DF9381B323
:1002C000806C81BBBA9AB99A8D9A87E690E0C7DEB6
:1002D00085EA81BF8EB580648EBD8EB582608EBD8D
:1002E00089B7806289BF29E088E190E00FB6F89471
:1002F000A89581BD0FBE21BD80E888B9789400E043
:10030000C0E0D0E010E080EDE82E87E0F82E01C0DC
:1003100000E0A895112319F4FDDE182F05C0002375
:1003200019F0143008F457C0103308F0105314308B
:1003300071F4C19A89B78F7D89BF85B78F78806244
:1003400085BF889585B7806885BF01E044C01530BA
:1003500049F4C19889B7806289BF85B78F7785BF17
:1003600010E002C00023A9F6C7010197F1F721961A
:10037000C93CD1056CF28091620021DF809162005E
:100380008F5F80936200833011F41092620012300C
:1003900049F0133079F0113091F48091A0009091E0
:1003A000A10004C080919C0090919D006AE070E0E3
:1003B000E7DE0BC080919E0090919F00F7CF112344
:1003C00021F400E0C0E0D0E0A4CF80E690E070DE51
:1003D00000E0C0E0D0E010E09CCF8A3019F48DE05E
:1003E00001D08AE0FF93EF93E0916400F091650003
:1003F000309709F00995EF91FF910895FC018591DF
:10040000803011F0EADFFBCF0895FF27E0E230E211
:1004100047FF0CC0419597FF09C0EDE260957095CC
:1004200080959095611D711D811D911D27FF02C052
:10043000219530E350E2AA27660F771F881F991F86
:10044000AA1FA41710F0A41B63955A95A9F7AA3008
:1004500008F0A95FA05DAF93F39561157105810563
:10046000910541F7ED3211F4EF93F395F21718F47B
:100470003F93F395FBCF8F91B0DFFA95E1F70895A5
:10048000E991F9918591803021F0853219F0A5DF4D
:10049000F9CF089520E0E89455915532C1F35033D7
:1004A00011F4689455915A3348F4505390F3220F45
:1004B000022E220F220F200D250FF4CF0EF42195CE
:1004C00089919991533619F3533729F1533559F1DD
:1004D000BC0188279927E8945C3621F48991999189
:1004E00068945591543639F446EF7EF077FF0DC08D
:1004F0008FEF9FEF0AC055374AE039F0583540E199
:1005000021F0523642E009F00895FF93EF937DDF2A
:10051000EF91FF91B7CFFF93EF93FC018191803072
:10052000B9F35BDFFBCFFF93EF9368DFF1CFDF938E
:10053000CF93CDB7DEB72596A3DFCF91DF91089596
:10054000F70181937F010895DF93CF93CDB7DEB795
:100550002596E0916400F0916500EF93FF93E0EA47
:10056000F2E0E0936400F0936500FF92EF92E9906F
:10057000F99086DFF7011082EF90FF90FF91EF91E5
:10058000E0936400F0936500CF91DF910895AA1B7A
:10059000BB1B51E107C0AA1FBB1FA617B70710F06E
:1005A000A61BB70B881F991F5A95A9F780959095A0
:1005B000BC01CD010895FB019F01E8944230BCF0DD
:1005C0004532ACF44A3029F497FB1EF4909581959E
:1005D0009F4F642F7727DBDF805D8A330CF0895DC6
:1005E0008193CB010097A9F716F45DE25193108235
:1005F000C90100C0DC01FC01672F71917723E1F78D
:10060000329704C07C916D9370836291AE17BF07DF
:08061000C8F30895F894FFCF30
:0206180041009F
:00000001FF
