:100000000C943E000C945B000C945B000C945B0021
:100010000C945B000C945B000C945B000C94BC0093
:100020000C945B000C945B000C945B000C945B00E4
:100030000C945B000C945B000C945B000C945B00D4
:100040000C945B000C945B000C945B000C945B00C4
:100050000C9441020C94BE010C945B000C945B0068
:100060000C945B000C945B000C945B000C945B00A4
:100070000C9463020C94EA010C945B0011241FBEE3
:10008000CFEFD0E1DEBFCDBF11E0A0E0B1E0EEEBFD
:10009000F6E002C005900D92A831B107D9F711E042
:1000A000A8E1B1E001C01D92AC39B107E1F70E94AF
:1000B000A6020C945D030C94000081E58CBD81E0E8
:1000C0008DBD0895CF93DF93EC01DB0120E030E09C
:1000D0000CC0FE01E20FF31F80818EBD0DB407FE40
:1000E000FDCF8EB58D932F5F3F4F241790F3DF9197
:1000F000CF910895FC0190E007C080818EBD0DB4C2
:1001000007FEFDCF9F5F31969617B8F308958EBD19
:100110000DB407FEFDCF8EB508953A9A249A2C9817
:10012000429A8CB580658CBD8DB581608DBD08957A
:100130001F93162F42988F7180620E948700812F33
:100140000E948700429A1F91089585E062E00E9414
:10015000980081E161E00E9498001092190180E00E
:100160006BE40E9498002C9A089542988FEF0E94A9
:100170008700429A847008951F920F920FB60F92D3
:1001800011242F933F934F935F936F937F938F939C
:100190009F93AF93BF93EF93FF93809119018823AF
:1001A00089F042988FEF0E948700429A2C9880E055
:1001B0006BE40E9498002C9A1092190187E060E38A
:1001C0000E949800FF91EF91BF91AF919F918F9105
:1001D0007F916F915F914F913F912F910F900FBE43
:1001E0000F901F901895FF920F931F938C01F62E7E
:1001F0002C9881E08093190180E06AE40E949800C5
:10020000429881EE0E948700429A429880EA0E94BA
:100210008700C8016F2D0E947A00429A2C9A1F9184
:100220000F91FF900895FF920F931F938B01F42E6F
:1002300042988F7180620E948700C8016F2D0E94D2
:100240007A00429A1F910F91FF900895BC0180E1BE
:1002500045E00E9413010895BC012C988AE045E016
:100260000E9413012C9A0895FF920F931F938B0104
:10027000F42E42988F710E948700C801B8014F2D5B
:100280000E946200429A1F910F91FF9008950F9370
:100290001F938C01429881E60E948700C801B80133
:1002A00041E00E946200429A87E060E40E94980068
:1002B0001F910F910895809318010895282F809120
:1002C0001801882381F49093C5002093C40088E12D
:1002D0008093C10086E88093C2008091C100886944
:1002E0008093C10008959093CD002093CC0088E1C5
:1002F0008093C90086E88093CA008091C90088690C
:100300008093C9000895282F809118018823A9F4AB
:1003100090915C019F5F9F70809160019817E1F35D
:10032000E92FF0E0E45DFE4F208390935C01809123
:10033000C10080628093C1000895909181019F5F08
:100340009F7080915D019817E1F3E92FF0E0E65E80
:10035000FE4F2083909381018091C9008062809339
:10036000C9000895CF93DF93EC0102C00E9483017E
:1003700089918823D9F7DF91CF9108951F920F9229
:100380000FB60F9211248F939F93EF93FF93909149
:100390005C0180916001981779F0809160018F5F16
:1003A0008F7080936001E0916001F0E0E45DFE4FAA
:1003B00080818093C60005C08091C1008F7D8093AD
:1003C000C100FF91EF919F918F910F900FBE0F9001
:1003D0001F9018951F920F920FB60F9211248F93B2
:1003E0009F93EF93FF939091810180915D01981706
:1003F00079F080915D018F5F8F7080935D01E09156
:100400005D01F0E0E65EFE4F80818093CE0005C086
:100410008091C9008F7D8093C900FF91EF919F91DA
:100420008F910F900FBE0F901F901895809118011B
:10043000882391F490915F0180915E019817F9F003
:1004400080915E018F5F8F7180935E01E0915E010C
:10045000F0E0EF59FE4F11C090912B0180912A01DD
:10046000981769F080912A018F5F8F7180932A011C
:10047000E0912A01F0E0E45CFE4F8081089580E085
:1004800008951F920F920FB60F9211248F939F938E
:10049000EF93FF939091C600E0915F01EF5FEF71E2
:1004A00080915E01E81731F0E0935F01F0E0EF59D1
:1004B000FE4F9083FF91EF919F918F910F900FBE10
:1004C0000F901F9018951F920F920FB60F92112444
:1004D0008F939F93EF93FF939091CE00E0912B0128
:1004E000EF5FEF7180912A01E81731F0E0932B0163
:1004F000F0E0E45CFE4F9083FF91EF919F918F912C
:100500000F900FBE0F901F9018950F931F93DF93BE
:10051000CF93CDB7DEB761970FB6F894DEBF0FBEAD
:10052000CDBFAB018E010F5F1F4FB8010E941803B2
:10053000C8010E94B20161960FB6F894DEBF0FBEEB
:10054000CDBFCF91DF911F910F9108951F93CF934E
:10055000DF930E9A3D9A459A84B1806A84B985B139
:10056000806A85B93A9A429A5C9A8091680088605C
:1005700080936800809173008061809373000E9473
:100580008D0084EF91E02CEC31E0F9013197F1F727
:100590000197D9F70E94A50081E00E945B0187E7DF
:1005A00090E00E945E0178948DE00E9483018AE0D1
:1005B0000E94830180E091E00E94B2018DE00E94E0
:1005C00083018AE00E948301CCECD1E010E40E9418
:1005D000B50090E06AE070E00E94850286E091E05C
:1005E0000E94B20188E893E1FE013197F1F701978B
:1005F000D9F70E94B5008823E1F38CE891E00E94CE
:10060000470182B1812782B989E091E00E94B2015D
:1006100083E191E00E94B20180918C0190E06AE058
:1006200070E00E94850286E091E00E94B201CFCF87
:10063000FB019F01E8944230C4F04532B4F44A30E3
:1006400029F497FB1EF4909581959F4F642F77278F
:100650000E944903805D8A330CF0895D8193CB0150
:100660000097A1F716F45DE251931082C9010C9432
:100670003903DC01FC01672F71917723E1F7329791
:1006800004C07C916D9370836291AE17BF07C8F36D
:100690000895AA1BBB1B51E107C0AA1FBB1FA617C9
:1006A000B70710F0A61BB70B881F991F5A95A9F71B
:0E06B00080959095BC01CD010895F894FFCF80
:1006BE005354415254000A0D004F64656272616ECC
:0806CE006F2000202D20000028
:00000001FF
