:100000000C942A000C943C000C943C000C949B0033
:100010000C943C000C943C000C943C000C943C0070
:100020000C943C000C943C000C943C000C943C0060
:100030000C943C000C943C000C943C000C943C0050
:100040000C943C000C943C000C943C000C943C0040
:100050000C943C0011241FBECFE5D8E0DEBFCDBF1D
:1000600010E0A0E6B0E001C01D92AB37B107E1F7A8
:100070000E9449010C9476010C94000087B38F70A4
:1000800087BB87B3806B87BB81E58DB981E08EB973
:100090000895CF93DF93EC01DB0120E030E00BC04B
:1000A000FE01E20FF31F80818FB9779BFECF8FB1E6
:1000B0008D932F5F3F4F241798F3DF91CF910895D1
:1000C000FC0190E006C080818FB9779BFECF9F5FD7
:1000D00031969617C0F308958FB9779BFECF8FB1F5
:1000E00008951F93162FC1988F7180620E946C0033
:1000F000812F0E946C00C19A1F91089585E062E0F3
:100100000E94710081E161E00E9471001092600024
:1001100080E06BE40E947100C09A089580916000B5
:10012000882311F080E00895C1988FEF0E946C0041
:10013000C19A807408951F920F920FB60F921124E6
:100140002F933F934F935F936F937F938F939F93DF
:10015000AF93BF93EF93FF9380916000882389F062
:10016000C1988FEF0E946C00C19AC09880E06BE448
:100170000E947100C09A1092600087E060E30E94C4
:100180007100FF91EF91BF91AF919F918F917F91FE
:100190006F915F914F913F912F910F900FBE0F90F4
:1001A0001F9018951F93CF93DF93EC01162F80912A
:1001B00060008823E1F7C09881E08093600080E0D0
:1001C0006AE40E947100C19881EE0E946C00C19A9D
:1001D000C19880EA0E946C00CE01612F0E946000ED
:1001E000C19AC09ADF91CF911F910895FF920F930A
:1001F0001F938B01F42EC1988F7180620E946C0056
:10020000C8016F2D0E946000C19A1F910F91FF904D
:100210000895BC0180E145E00E94F6000895BC010C
:10022000C0988AE045E00E94F600C09A0895FF92C7
:100230000F931F938B01F42EC1988F710E946C0055
:10024000C801B8014F2D0E944900C19A1F910F911A
:10025000FF9008950F931F938C01C19881E60E942F
:100260006C00C801B80141E00E944900C19A87E0D2
:1002700060E40E9471001F910F910895B99AB89A95
:10028000C098C19A80E485BF80E28BBF0E943E0087
:100290000895CF93DF9380E29EE424E131E0F901F9
:1002A0003197F1F70197D9F70E943E0184EF91E071
:1002B00024E131E0F9013197F1F70197D9F70E9474
:1002C0007E007894C4E1D1E0809161008F5F8093DB
:1002D000610081E690E061E00E94D20088E893E14D
:1002E000FE013197F1F70197D9F7EECFF894FFCFE0
:00000001FF
