:100000000C943E000C945B000C945B000C945B0021
:100010000C945B000C945B000C945B000C945B00F4
:100020000C945B000C945B000C945B000C945B00E4
:100030000C945B000C945B000C945B000C945B00D4
:100040000C945B000C945B000C945B000C945B00C4
:100050000C9443010C94C0000C945B000C945B0066
:100060000C945B000C945B000C945B000C945B00A4
:100070000C9465010C94EC000C945B0011241FBEE1
:10008000CFEFD0E1DEBFCDBF11E0A0E0B1E0E8E40A
:10009000F4E002C005900D92AC30B107D9F711E041
:1000A000ACE0B1E001C01D92A537B107E1F70E94B5
:1000B000A8010C9422020C94000080930C01089576
:1000C000282F80910C01882381F49093C500209300
:1000D000C40088E18093C10086E88093C2008091CB
:1000E000C10088698093C10008959093CD0020934A
:1000F000CC0088E18093C90086E88093CA00809193
:10010000C90088698093C9000895282F80910C0147
:100110008823A9F490914F019F5F9F7080915301B4
:100120009817E1F3E92FF0E0E15EFE4F2083909312
:100130004F018091C10080628093C1000895909129
:1001400074019F5F9F70809150019817E1F3E92F30
:10015000F0E0E35FFE4F2083909374018091C9002B
:1001600080628093C9000895CF93DF93EC0102C0B1
:100170000E94850089918823D9F7DF91CF91089556
:100180001F920F920FB60F9211248F939F93EF93AC
:10019000FF9390914F0180915301981779F08091CE
:1001A00053018F5F8F7080935301E0915301F0E012
:1001B000E15EFE4F80818093C60005C08091C10042
:1001C0008F7D8093C100FF91EF919F918F910F9050
:1001D0000FBE0F901F9018951F920F920FB60F929F
:1001E00011248F939F93EF93FF93909174018091CB
:1001F0005001981779F0809150018F5F8F70809334
:100200005001E0915001F0E0E35FFE4F8081809368
:10021000CE0005C08091C9008F7D8093C900FF91F9
:10022000EF919F918F910F900FBE0F901F90189597
:1002300080910C01882391F4909152018091510199
:100240009817F9F0809151018F5F8F718093510160
:10025000E0915101F0E0EC5AFE4F11C090911E0167
:1002600080911D01981769F080911D018F5F8F713A
:1002700080931D01E0911D01F0E0E15DFE4F808162
:10028000089580E008951F920F920FB60F921124E7
:100290008F939F93EF93FF939091C600E09152014B
:1002A000EF5FEF7180915101E81731F0E093520157
:1002B000F0E0EC5AFE4F9083FF91EF919F918F9168
:1002C0000F900FBE0F901F9018951F920F920FB6B0
:1002D0000F9211248F939F93EF93FF939091CE00F1
:1002E000E0911E01EF5FEF7180911D01E81731F081
:1002F000E0931E01F0E0E15DFE4F9083FF91EF91EE
:100300009F918F910F900FBE0F901F9018950F9394
:100310001F93DF93CF93CDB7DEB761970FB6F894F5
:10032000DEBF0FBECDBFAB018E010F5F1F4FB80107
:100330000E94DD01C8010E94B40061960FB6F894D6
:10034000DEBF0FBECDBFCF91DF911F910F910895FA
:10035000FF920F931F93CF93DF9381E00E945D0084
:1003600087E790E00E946000789480E481B9CCE84F
:10037000D0E080E4F82E0CEC11E081E00E945D00FA
:1003800080E091E00E94B400CE016AE070E00E943B
:1003900087018DE00E9485008AE00E9485002196F9
:1003A000C093660082B18F2582B980ED97E0F80195
:1003B0003197F1F70197D9F7E0CFFB019F01E8945E
:1003C0004230C4F04532B4F44A3029F497FB1EF4AD
:1003D000909581959F4F642F77270E940E02805D34
:1003E0008A330CF0895D8193CB010097A1F716F455
:1003F0005DE251931082C9010C94FE01DC01FC0105
:10040000672F71917723E1F7329704C07C916D9348
:1004100070836291AE17BF07C8F30895AA1BBB1B78
:1004200051E107C0AA1FBB1FA617B70710F0A61BF4
:10043000B70B881F991F5A95A9F780959095BC0115
:08044000CD010895F894FFCFEF
:0C044800554152542054455354200000EC
:00000001FF
