:100000000C9441000C945E000C945E000C945E0015
:100010000C945E000C945E000C945E000C945E00E8
:100020000C945E000C948E0F0C945E000C945E0099
:100030000C945E000C945E000C945E000C945E00C8
:100040000C944E0F0C945E000C945E000C945E00B9
:100050000C942A0D0C94A70C0C945E000C945E007A
:100060000C945E000C945E000C945E000C945E0098
:100070000C944C0D0C94D30C0C945E0025732F251E
:10008000730011241FBECFEFD0E1DEBFCDBF11E062
:10009000A0E0B1E0E6E9F4E302C005900D92AE36CF
:1000A000B107D9F717E0AEE6B1E001C01D92A03765
:1000B000B107E1F70E9482130C94491A0C940000D6
:1000C000DF92EF92FF920F931F93D82E7A018B014C
:1000D00087FF0CC087E740E050E060E070E00E94DE
:1000E0006000823008F049C08FE7D822459A8FEF30
:1000F0008EBD0DB407FEFDCF8EB545988FEF8EBD3A
:100100000DB407FEFDCF8EB5DEBC0DB407FEFDCFEE
:10011000812F9927AA27BB278EBD0DB407FEFDCFDF
:10012000C801AA27BB278EBD0DB407FEFDCFBB2794
:10013000A12F902F8F2D8EBD0DB407FEFDCFEEBCED
:100140000DB407FEFDCF80E4D81611F485E906C092
:1001500088E4D81611F487E801C081E08EBD0DB4A3
:1001600007FEFDCF9AE02FEF2EBD0DB407FEFDCFA9
:100170008EB587FF02C09150B9F71F910F91FF9084
:10018000EF90DF900895EF92FF920F931F93CF931C
:10019000DF937C01E9018091700183FD07C039E0A4
:1001A000440F551F661F771F3A95D1F781E50E94CE
:1001B0006000882309F03EC080E395E73FEF3EBD35
:1001C0000DB407FEFDCF2EB52F3F19F40197B9F7F7
:1001D00031C02E3F79F5222733272C1B3D0B2E5F94
:1001E0003D4F201B310B209741F08FEF8EBD0DB49A
:1001F00007FEFDCF9EB52197C9F7E114F10479F010
:100200009FEF9EBD0DB407FEFDCF8EB5F701808335
:100210000150104021F00894E11CF11CF2CF8FEF47
:100220008EBD0DB407FEFDCF9EB521503040C1F705
:1002300090E001C091E0459A8FEF8EBD0DB407FEAE
:10024000FDCF8EB5892FDF91CF911F910F91FF9038
:10025000EF900895FC01009701F120916E0130911B
:100260006F010AC080818EBD0DB407FEFDCF3196AF
:1002700041505040215030404115510529F43093F0
:100280006F0120936E0107C02115310559F71092B7
:100290006F0110926E0190E05AC041155105610541
:1002A000710519F18091700183FD07C0E9E0440FE9
:1002B000551F661F771FEA95D1F788E50E946000F9
:1002C000882311F091E043C08FEF8EBD0DB407FE7F
:1002D000FDCF8EEF8EBD0DB407FEFDCF80E092E026
:1002E00090936F0180936E01D6CF80916E019091B3
:1002F0006F01029602C01EBC01970097E1F70DB492
:1003000007FEFDCF8FEF8EBD0DB407FEFDCF8EB57E
:100310008F718530A1F428EE3DEF9FEF02C0215090
:1003200030409EBD0DB407FEFDCF8EB58F3F21F04E
:1003300021153105A1F703C090E0232B09F491E0CA
:10034000459A8FEF8EBD0DB407FEFDCF8EB5892F78
:100350000895CF92DF92EF92FF920F931F93DF9356
:10036000CF9300D000D0CDB7DEB7459908C080E06C
:1003700090E040E050E060E070E00E942A0184E6F6
:100380009FEF9EBD0DB407FEFDCF2EB58150C9F77E
:1003900080E440E050E060E070E00E946000813066
:1003A00009F06EC088E44AEA51E060E070E00E9423
:1003B0006000813009F042C06E010894C11CD11C5C
:1003C00076019FEF9E012B5F3F4F9EBD0DB407FE50
:1003D000FDCF8EB5F70181937F01E217F307A9F7EF
:1003E0008B81813009F04CC08C818A3A09F048C079
:1003F00000EE1EE204C00150104009F441C089EE35
:1004000040E050E060E070E40E946000882399F7CB
:1004100052C09FEF9EBD0DB407FEFDCF8EB5F60115
:1004200081936F01EE15FF05A9F7898186FD03C051
:1004300004E0F02E26C01CE0F12E23C089EE40E03F
:1004400050E060E070E00E946000823028F0B1E48B
:10045000EB2EFF24F39404C0A9EEEA2EF2E0FF2E67
:1004600008EA11E603C00150104051F08E2D40E023
:1004700050E060E070E00E9460008823A1F726C091
:10048000FF24F0927001459A8FEF8EBD0DB407FEE8
:10049000FDCF8EB580E0FF2009F481E00F900F9032
:1004A0000F900F90CF91DF911F910F91FF90EF90E0
:1004B000DF90CF9008958AE740E050E060E070E080
:1004C0000E946000882309F4A4CFDACF80E540E0E1
:1004D00052E060E070E00E946000882389F6D1CF8E
:1004E0001F9380E090E040E050E060E070E00E9408
:1004F0002A0110E00BC080E090E040E050E060E0B6
:1005000070E00E942A011F5F143611F0882399F7CA
:100510001F910895CF92DF92EF92FF920F931F9356
:10052000CF93DF936C01C0917101D0917201FC01F6
:100530001182108224813581468157812130310515
:100540004105510509F45BC088859985AA85BB855D
:10055000281739074A075B0708F051C021153105F4
:100560004105510539F48881833021F4288939897E
:100570004A895B89F6012087318742875387211595
:1005800031054105510581F18EEFE82E8FEFF82EF0
:100590008FEF082F8FEF182FE20EF31E041F151F89
:1005A00088859985AA85BB850297A109B109E816B6
:1005B000F9060A071B0728F020E030E040E050E091
:1005C00017C0298130E040E050E0C801B7010E9427
:1005D000EB169B01AC018C899D89AE89BF89280FE0
:1005E000391F4A1F5B1F04C0288939894A895B89E2
:1005F000F601248735874687578780E001C081E070
:10060000DF91CF911F910F91FF90EF90DF90CF90EE
:1006100008956F927F928F929F92AF92BF92CF92E6
:10062000DF92EF92FF920F931F93DF93CF9300D04F
:1006300000D0CDB7DEB74B015C01609071017090C6
:10064000720182E088169104A104B10408F4B4C0D8
:10065000F30180859185A285B38588169906AA063F
:10066000BB0608F0A9C08081823009F45FC08330E6
:1006700009F47BC0813009F09FC0C401969587952D
:10068000880D991D9C013170892F992786956C01E1
:10069000EE24FF24F3014485558566857785CE01D8
:1006A0000196F1E02F3F3F0749F0C40ED51EE61E2C
:1006B000F71EB701A60102E010E01EC04C0D5D1D43
:1006C0006E1D7F1D2FEF31E001E010E00E94C3009E
:1006D000882309F071C0F3014485558566857785C7
:1006E0004F5F5F4F6F4F7F4F4C0D5D1D6E1D7F1D28
:1006F000CE01029620E030E00E94C300882309F07A
:100700005BC069817A81C40181709070892B39F056
:10071000A4E076956795AA95E1F79B0123C09B011C
:1007200040E050E03F70407050704AC077276B2D1A
:100730005A2D492DF30184859585A685B785480FE7
:10074000591F6A1F7B1F94013070220F331FCE0187
:10075000019602E010E00E94C300882369F58981B8
:100760009A819C0140E050E02BC0B501A40127E034
:1007700076956795579547952A95D1F7F301848526
:100780009585A685B785480F591F6A1F7B1F940161
:100790002F773070220F331F220F331FCE010196A7
:1007A00004E010E00E94C300882331F429813A81DB
:1007B0004B815C815F7004C021E030E040E050E09C
:1007C000B901CA010F900F900F900F90CF91DF9158
:1007D0001F910F91FF90EF90DF90CF90BF90AF905F
:1007E0009F908F907F906F900895AF92BF92CF921D
:1007F000DF92EF92FF920F931F93CF93DF935C01F1
:10080000C0917101D0917201FC01C080D180089427
:10081000C11CD11CC114D10409F48FC024853585B5
:1008200046855785211531054105510509F485C0D7
:10083000C6018F709070892B09F07AC02F5F3F4FEF
:100840004F4F5F4F248735874687578740855185AF
:1008500062857385411551056105710539F48C81F7
:100860009D81C816D90608F463C067C0898190E0ED
:1008700001979601E4E036952795EA95E1F7822302
:100880009323892B09F054C0CB01BA010E940903BC
:100890009B01AC01623071058105910510F481E086
:1008A0004DC088859985AA85BB85281739074A07D1
:1008B0005B0708F042C0F5012087318742875387E4
:1008C000C0917101D09172018EEFE82E8FEFF82E5A
:1008D0008FEF082F8FEF182FE20EF31E041F151F46
:1008E00088859985AA85BB850297A109B109E81673
:1008F000F9060A071B0728F020E030E040E050E04E
:1009000012C0298130E040E050E0C801B7010E94E8
:10091000EB169B01AC018C899D89AE89BF89280F9C
:10092000391F4A1F5B1FF501248735874687578784
:10093000F501D182C08280E001C083E0DF91CF91D8
:100940001F910F91FF90EF90DF90CF90BF90AF90ED
:1009500008952F923F924F925F926F927F928F9263
:100960009F92AF92BF92CF92DF92EF92FF920F933E
:100970001F93CF93DF93E82FC0917101D091720143
:10098000209711F486E00DC18A8180FD02C085E0C8
:1009900008C1AC8CBD8CCE8CDF8C4E2F592FCB0177
:1009A000DA013C014D01A614B704C804D90410F4BF
:1009B00035014601288D398D4A8D5B8D188E198E33
:1009C0001A8E1B8E611471048104910409F4E8C02D
:1009D0008981A82EBB24CC24DD2499E0AA0CBB1C61
:1009E000CC1CDD1C9A95D1F7211531054105510527
:1009F000B1F119012A010894210831084108510870
:100A0000C401B3016150704080409040A60195013F
:100A10000E941E1779018A01C201B101A601950148
:100A20000E941E17E216F30604071507C0F0882778
:100A30009927DC018A199B09AC09BD098221932100
:100A4000A421B521888F998FAA8FBB8F681A790A44
:100A50008A0A9B0A2CA13DA14EA15FA133C028A107
:100A600039A14AA15BA12CA33DA34EA35FA32AC039
:100A7000CA01B9010E9409039B01AC0162307105F2
:100A80008105910508F489C088859985AA85BB856B
:100A9000281739074A075B0708F07FC02CA33DA33E
:100AA0004EA35FA3888D998DAA8DBB8D8A0D9B1D4A
:100AB000AC1DBD1D888F998FAA8FBB8F6A187B08CC
:100AC0008C089D08A614B704C804D90488F2888D40
:100AD000998DAA8DBB8D860D971DA81DB91D888F78
:100AE000998FAA8FBB8F00917101109172018EEFC7
:100AF000A82E8FEFB82E8FEFC82E8FEFD82EA20E14
:100B0000B31EC41ED51EF80180859185A285B385CC
:100B10000297A109B109A816B906CA06DB06E8F5CD
:100B2000218130E040E050E0C601B5010E94EB16A3
:100B30009B01AC01F80184899589A689B789280FA2
:100B4000391F4A1F5B1F211531054105510529F148
:100B5000D401C30119E0B695A795979587951A9585
:100B6000D1F7982F8B83FFEFEF2EF1E0FF2E012DB1
:100B7000112D6E207F208022912261147104810446
:100B8000910471F0280F311D411D511D28A739A76F
:100B90004AA75BA79F5F9B8303C01A8281E001C0C5
:100BA00080E0DF91CF911F910F91FF90EF90DF9048
:100BB000CF90BF90AF909F908F907F906F905F90FD
:100BC0004F903F902F900895AF92BF92CF92DF92B7
:100BD000EF92FF920F931F93DF93CF93CDB7DEB7C2
:100BE000AC970FB6F894DEBF0FBECDBF7C015B01A2
:100BF000E0917101F0917201309711F486E0C6C066
:100C0000CE010D9697838683CE010196D701139668
:100C10009C938E9312976115710521F4C7010E9470
:100C20008A02B4C0C680D78083E026C0F701208145
:100C300031812F703070E5E0220F331FEA95E1F724
:100C4000C60100E210E00E94C300882311F081E099
:100C50001FC0D6019C91992309F4A9C01B968C91C1
:100C6000953E29F09E3219F08F7383FF1DC0C70196
:100C70000E94F503882361F4F70144855585668554
:100C80007785411551056105710581F6882361F06D
:100C9000D7011C961D921D921D921C921F978330A6
:100CA00019F0882309F072C09501275F3F4FF701C3
:100CB00084859585A685B7850097A105B10509F4BA
:100CC00056C0E0917101F09172014681578180E038
:100CD00090E0FA01E80FF91FE081E03251F0E530D1
:100CE00009F4E5EED901ED939D0101968830910557
:100CF00081F7FA018085803211F4F90110C0F90101
:100D00008EE28193DA012C5F3F4F18968C911897F1
:100D1000803229F081931196E217F307B1F7DA01D7
:100D20001B968C91D50118968C93DA015C960D91E7
:100D30001D912D913C915F97D5010D931D932D939E
:100D40003C931397DA0158968D919C915997D50150
:100D500015969C938E931497DA0156968D919C91DB
:100D60005797D50117969C938E9316979F01F9017B
:100D70001082C7010E94F503833041F4D7011C960D
:100D80001D921D921D921C921F9780E0AC960FB68B
:100D9000F894DEBF0FBECDBFCF91DF911F910F91B1
:100DA000FF90EF90DF90CF90BF90AF90089583E0D9
:100DB0006FCF8F929F92AF92BF92CF92DF92EF92BE
:100DC000FF920F931F93CF93DF93EC017B0103C03E
:100DD0000894E11CF11CF70180818032C9F38F3245
:100DE00019F40894E11CF11C1C821D821E821F82D2
:100DF000F7018081813268F4CE010E948A02B82E08
:100E0000E0917101F09172010680F781E02D10826E
:100E1000ABC080E2882E99249394AA81BB81FD0106
:100E20008BE090E001C0819201972FEF8F3F9207F6
:100E3000D1F720E0AA2438E002C028E03BE0F70127
:100E4000EA0DF11D9081A3949132B0F09F32A1F090
:100E50009E3211F0231728F0383071F49E3269F376
:100E60000BC0892F81568A3108F49052FD01E20FA0
:100E7000F11D90832F5FE3CF1B961C921B9791323D
:100E800010F41B969C92CE010E948A02B82E8823F1
:100E900009F03FC0E0917101F0917201C680D780E6
:100EA0004C855D856E857F85288139812F703070F6
:100EB00005E0220F331F0A95E1F7C60100E210E0BA
:100EC0000E94C300882311F081E022C0F6018081D6
:100ED000882309F457C0838583FD15C0D6018A8114
:100EE0009B819C01F9012BE030E0215030408FEFD5
:100EF0002F3F380709F449C09C918081981719F455
:100F000011963196F2CFCE010E94F503882341F26B
:100F1000B82EE3E0BE1641F5EA81FB818385882384
:100F200009F122C0E0917101F09172010680F78110
:100F3000E02D838584FF16C0EA0CF11C8489958915
:100F4000A0E0B0E0DC0199278827228D338D40E0B6
:100F500050E0822B932BA42BB52B8C839D83AE83E7
:100F6000BF835BCFA4E0BA2E8B2DDF91CF911F9171
:100F70000F91FF90EF90DF90CF90BF90AF909F9038
:100F80008F900895F3E0BF2EC7CFEA81FB81838560
:100F9000882341F2E9CFEF92FF920F931F93DF93E3
:100FA000CF93CDB7DEB7AC970FB6F894DEBF0FBEC8
:100FB000CDBF8C01E0917101F0917201309711F475
:100FC00086E032C03DE0E32EF12CEC0EFD1EF782F0
:100FD000E682CE010196F80193838283C8010E94C4
:100FE000D9068823F1F48D858823C1F0888D84FF8C
:100FF0001AC0F70184899589A0E0B0E0DC01992747
:101000008827228D338D40E050E0822B932BA42B38
:10101000B52BF80184839583A683B783C8010E940A
:101020008A02833009F484E0AC960FB6F894DEBFF0
:101030000FBECDBFCF91DF911F910F91FF90EF9029
:101040000895EF92FF920F931F93DF93CF93CDB745
:10105000DEB7EC970FB6F894DEBF0FBECDBFBC0174
:1010600000917101109172010115110511F466E0F2
:1010700041C0F80112825DE1E52EF12CEC0EFD1E5F
:10108000F782E682CE010196988B8F87CE010D966E
:101090000E94D906682F882369F58D8D882349F130
:1010A00088A584FD26C0F70184899589A0E0B0E079
:1010B000DC0199278827228D338D40E050E0822B78
:1010C000932BA42BB52BF80180A391A3A2A3B3A3C8
:1010D000F701848D958DA68DB78DF801848F958F3E
:1010E000A68FB78F108E118E128E138E81E08283A1
:1010F00001C063E0862FEC960FB6F894DEBF0FBEFA
:10110000CDBFCF91DF911F910F91FF90EF90089588
:101110004F925F926F927F928F929F92AF92BF9207
:10112000CF92DF92EF92FF920F931F93CF93DF93B3
:101130003C016B014A01C0917101D0917201FA0129
:1011400011821082209711F486E0DAC08A8180FD36
:1011500002C085E0D5C02C8D3D8D4E8D5F8D888D74
:10116000998DAA8DBB8D281B390B4A0B5B0BCB01CC
:10117000A0E0B0E0281739074A075B0708F46901C7
:101180005301412CF2E05F2EB3C0E88CF98C0A8D3C
:101190001B8DD801C7019170A070B0700097A10598
:1011A000B10509F06BC0C801B701E9E096958795D4
:1011B00077956795EA95D1F7298130E040E050E0D6
:1011C0000E941E176115710581059105D9F4E1147E
:1011D000F1040105110529F468A179A18AA19BA157
:1011E00006C06CA17DA18EA19FA10E94090362305F
:1011F00071058105910508F481C06CA37DA38EA3C0
:101200009FA31B8200917101109172012CA13DA13D
:101210004EA15FA12250304040405040F8018085EF
:101220009185A285B3850297A109B10928173907CD
:101230004A075B0708F062C0618170E080E090E0DF
:101240000E94EB169B01AC01F80184899589A6895F
:10125000B789280F391F4A1F5B1F2115310541052A
:10126000510509F44BC08B81280F311D411D511DC3
:1012700028A739A74AA75BA78F5F8B83088D198D95
:101280002A8D3B8DC8019170A201481B590B760134
:101290004C155D0508F47A016114710419F480E0BD
:1012A00090E001C0C50148A559A56AA57BA5980194
:1012B000317087010E94C300882301F5C701A0E0B7
:1012C000B0E0288D398D4A8D5B8D280F391F4A1F5C
:1012D0005B1F288F398F4A8F5B8FAE0CBF1CCE18D7
:1012E000DF08F401808191818E0D9F1D91838083A1
:1012F000C114D10409F049CF80E002C01A8281E014
:10130000DF91CF911F910F91FF90EF90DF90CF90E1
:10131000BF90AF909F908F907F906F905F904F9015
:101320000895AF92BF92CF92DF92EF92FF920F9308
:101330001F93CF93DF93B82EA92E6A017B012EEF66
:1013400031E002E010E00E94C300882311F023E0A6
:1013500033C0CB2DDA2D8881998185559A4A11F0B9
:1013600022E02AC08B2D9A2DB701A60126E330E09A
:1013700002E010E00E94C300882339F4888199813B
:101380008654914411F420E017C08B2D9A2DB7019B
:10139000A60122E530E002E010E00E94C3008823AD
:1013A00011F021E009C020E08881998186549144A0
:1013B00009F421E081E02827822FDF91CF911F914E
:1013C0000F91FF90EF90DF90CF90BF90AF90089576
:1013D0004F925F926F927F928F929F92AF92BF9245
:1013E000CF92DF92EF92FF920F931F93CF93DF93F1
:1013F000FC015B013A01C0917101D0917201DA01E7
:101400001D921C92209711F486E008C18A8190E019
:1014100080FD02C085E002C1807490706115710585
:1014200089F4892B59F080E090E040E050E060E0E2
:1014300070E00E942A01882309F0EEC08A818F7B28
:101440008A83E8C0892B51F4888D998DAA8DBB8D34
:1014500080709E7F888F998FAA8FBB8F2C8D3D8D3A
:101460004E8D5F8D888D998DAA8DBB8D281B390B74
:101470004A0B5B0BC501A0E0B0E0281739074A070B
:101480005B0708F459014F01412CB2E05B2EBEC04E
:10149000E88CF98C0A8D1B8DC7019170892B09F09E
:1014A00077C0C801B701A9E09695879577956795AC
:1014B000AA95D1F7298130E040E050E00E941E1744
:1014C0006115710581059105D9F4E114F104010557
:1014D000110529F468A179A18AA19BA106C06CA17C
:1014E0007DA18EA19FA10E94090362307105810533
:1014F000910508F491C06CA37DA38EA39FA31B82CA
:1015000000917101109172012CA13DA14EA15FA12A
:101510002250304040405040F80180859185A2859E
:10152000B3850297A109B109281739074A075B0754
:1015300008F072C0618170E080E090E00E94EB16DC
:101540009B01AC01F80184899589A689B789280F88
:10155000391F4A1F5B1F211531054105510509F44B
:101560005BC08B81BA01A901480F511D611D711D1E
:1015700048A759A76AA77BA78F5F8B8380E090E07D
:101580000E942A01882309F047C08A8180648A83E7
:10159000888D998D91709201281B390B65012A1550
:1015A0003B0508F46901760100E010E0C401B801D0
:1015B000A7010E942A01882379F5888D998DAA8D2B
:1015C000BB8D8E0D9F1DA01FB11F9C01888F998F11
:1015D000AA8FBB8FD3018D919C9111978C0D9D1D6E
:1015E0008D939C933170232B69F480E090E040E070
:1015F00050E060E070E00E942A01882369F48A814B
:101600008F7B8A838C0C9D1CAC18BD08A114B1047F
:1016100009F03ECF80E002C01A8281E0DF91CF91D5
:101620001F910F91FF90EF90DF90CF90BF90AF9000
:101630009F908F907F906F905F904F9008956F92E2
:101640007F928F929F92AF92BF92CF92DF92EF9252
:10165000FF920F931F93DF93CF93CDB7DEB7A4977D
:101660000FB6F894DEBF0FBECDBF5C0110927201C1
:1016700010927101009709F4EDC00E94A90180FF4A
:1016800002C082E0ECC04E010894811C911CC40190
:1016900040E050E060E070E00E949109813021F06C
:1016A000CC24DD2476011BC0C40140E050E060E0A2
:1016B00070E02EEB31E000E110E00E94C3008823CF
:1016C00009F0CAC08D81882309F4C8C0C984DA84AE
:1016D000EB84FC84C401B701A6010E949109833008
:1016E00009F4BAC0882309F0B9C0CE010196B70148
:1016F000A6012DE030E004E210E00E94C300882340
:1017000009F0AAC08A859B85BC0180E090E0611544
:1017100071058105910521F4688D798D8A8D9B8DE8
:101720002C8130E040E050E00E94EB163B014C0180
:101730008A819B81A0E0B0E0C80ED91EEA1EFB1E84
:10174000F501C486D586E686F786898181832D8159
:101750003E81358324838F8198857C0100E010E0F1
:10176000E114F1040105110521F4EC88FD880E89CE
:101770001F898A819B81A0E0B0E0E81AF90A0A0B70
:101780001B0BE618F7080809190984E03695279518
:101790008A95E1F7C901A0E0B0E0E81AF90A0A0B5E
:1017A0001B0BF501218130E040E050E0C801B7019A
:1017B0000E941E172E5F3F4F4F4F5F4FF50120874E
:1017C000318742875387273FFFE03F07F0E04F070D
:1017D000F0E05F0710F481E008C0275F3F4F404012
:1017E000504010F083E001C082E0F5018083833037
:1017F00029F488A199A1AAA1BBA109C0F5018485FA
:101800009585A685B785860D971DA81DB91D808B6A
:10181000918BA28BB38BF5018481958114E0969511
:1018200087951A95E1F7A0E0B0E0248535854685D7
:101830005785820F931FA41FB51F860D971DA81DE6
:10184000B91D848B958BA68BB78B1282B0927201D7
:10185000A092710180E003C081E001C087E0A496FE
:101860000FB6F894DEBF0FBECDBFCF91DF911F91B1
:101870000F91FF90EF90DF90CF90BF90AF909F902F
:101880008F907F906F900895809373010895282F13
:1018900080917301882381F49093C5002093C40044
:1018A00088E18093C10086E88093C2008091C100E6
:1018B00088698093C10008959093CD002093CC0057
:1018C00088E18093C90086E88093CA008091C900AE
:1018D00088698093C9000895282F80917301882317
:1018E000A9F49091C4019F5F9F708091C8019817DF
:1018F000E1F3E92FF0E0EC56FE4F20839093C40112
:101900008091C10080628093C10008959091E901A7
:101910009F5F9F708091C5019817E1F3E92FF0E078
:10192000EE57FE4F20839093E9018091C9008062B9
:101930008093C9000895CF93DF93EC0102C00E9409
:101940006C0C89918823D9F7DF91CF9108951F926C
:101950000F920FB60F9211248F939F93EF93FF93E3
:101960009091C4018091C801981779F08091C801C5
:101970008F5F8F708093C801E091C801F0E0EC5652
:10198000FE4F80818093C60005C08091C1008F7D8D
:101990008093C100FF91EF919F918F910F900FBEA7
:1019A0000F901F9018951F920F920FB60F9211244F
:1019B0008F939F93EF93FF939091E9018091C501DD
:1019C000981779F08091C5018F5F8F708093C50162
:1019D000E091C501F0E0EE57FE4F80818093CE008C
:1019E00005C08091C9008F7D8093C900FF91EF9160
:1019F0009F918F910F900FBE0F901F90189580911F
:101A00007301882391F49091C7018091C6019817C2
:101A1000F9F08091C6018F5F8F718093C601E091CC
:101A2000C601F0E0E753FE4F11C090919301809101
:101A30009201981769F0809192018F5F8F71809366
:101A40009201E0919201F0E0EC55FE4F8081089503
:101A500080E008951F920F920FB60F9211248F937A
:101A60009F93EF93FF939091C600E091C701EF5FC2
:101A7000EF718091C601E81731F0E093C701F0E003
:101A8000E753FE4F9083FF91EF919F918F910F90BD
:101A90000FBE0F901F9018951F920F920FB60F92C6
:101AA00011248F939F93EF93FF939091CE00E09139
:101AB0009301EF5FEF7180919201E81731F0E093AD
:101AC0009301F0E0EC55FE4F9083FF91EF919F91D1
:101AD0008F910F900FBE0F901F9018950F931F932B
:101AE000DF93CF93CDB7DEB761970FB6F894DEBF23
:101AF0000FBECDBFAB018E010F5F1F4FB8010E941B
:101B00004017C8010E949B0C61960FB6F894DEBF87
:101B10000FBECDBFCF91DF911F910F910895BC01F2
:101B200080E098E40E940A17603130F0862F90E040
:101B3000409795958795682F6093B800089584EA3B
:101B40008093BC008091BC0087FFFCCF089584E99E
:101B50008093BC008091BC0084FDFCCF08958093ED
:101B6000BB0084E88093BC008091BC0087FFFCCF61
:101B700008958295880F880F807C84688093BC00CC
:101B80008091BC0087FFFCCF8091BB000895982F07
:101B9000F90184EA8093BC008091BC0087FFFCCFF0
:101BA0009093BB0084E88093BC008091BC0087FFC9
:101BB000FCCF6093BB0084E88093BC008091BC00A4
:101BC00087FFFCCF0CC080818093BB009093BC004A
:101BD0008091BC0087FFFCCF3196415001C094E852
:101BE000442389F784E98093BC008091BC0084FD84
:101BF000FCCF0895982FF90184EA8093BC0080916E
:101C0000BC0087FFFCCF9093BB0084E88093BC00AE
:101C10008091BC0087FFFCCF6093BB0084E8809379
:101C2000BC008091BC0087FFFCCF84EA8093BC009D
:101C30008091BC0087FFFCCF9F5F9093BB0084E83E
:101C40008093BC008091BC0087FFFCCF15C0415041
:101C500080E090E011F081E090E036E0880F991F7D
:101C60003A95E1F784688093BC008091BC0087FFBF
:101C7000FCCF8091BB008193442349F784E9809392
:101C8000BC008091BC0084FDFCCF08959091F301CD
:101C900080E02091F1013091F201822B932B9093FF
:101CA000EB018093EA019091F70180E02091F5012A
:101CB0003091F601822B932B9093F0018093EF01EA
:101CC0009091FB0180E02091F9013091FA01822B83
:101CD000932B9093EE018093ED0108950E94460EA0
:101CE00080E091E00E949B0C8091EA019091EB01D1
:101CF0006AE070E00E946E0D83E091E00E949B0C10
:101D00008091EF019091F0016AE070E00E946E0D09
:101D100087E091E00E949B0C8091ED019091EE0193
:101D20006AE070E00E946E0D8DE00E946C0C8AE00B
:101D30000E946C0C08958091EC01853E21F48BE0AB
:101D400091E00E949B0C8DE00E946C0C8AE00E9446
:101D50006C0C80E29EE42CEC31E0F9013197F1F754
:101D60000197D9F70895FF920F931F93CF93DF93B5
:101D7000082F162FF42EE9010E949F0D802F0E943C
:101D8000AF0D812F0E94AF0D0E949F0D802F8F5F9E
:101D90000E94AF0D09C0FA9480E009F081E00E9432
:101DA000B90D888319822296FF20A9F70E94A70DFA
:101DB000DF91CF911F910F91FF90089586EA62E322
:101DC00046E021EF31E00E94B30E0895FF920F9399
:101DD0001F93CF93DF93082F162FF42EE9010E9453
:101DE0009F0D802F0E94AF0D812F0E94AF0D0E948A
:101DF0009F0D802F8F5F0E94AF0D07C0FA9480E087
:101E000009F081E00E94B90D8993FF20B9F70E9483
:101E1000A70DDF91CF911F910F91FF9008950E9420
:101E20009F0D86EA0E94AF0D8DE20E94AF0D88E003
:101E30000E94AF0D0E94A70D08950E949F0D86EA93
:101E40000E94AF0D8DE20E94AF0D80E10E94AF0DA8
:101E50000E94A70D08950E949F0D86EA0E94AF0D73
:101E60008DE20E94AF0D80E00E94AF0D0E94A70D91
:101E700008950E942B0F0E941D0F0E940F0F86EAEB
:101E800060E041E02CEE31E00E94E60E08958FEF15
:101E90008EBD0DB407FEFDCF8EB508951F920F9233
:101EA0000FB60F9211242F933F938F939F93EF932D
:101EB000FF938091170220917E0130917F01F82FCE
:101EC000FF0FE0E0E20FF31FEF5CFC4F8081809397
:101ED0007D012F5F3F4F30937F0120937E0190E083
:101EE00090938900809388002050324060F01092D7
:101EF0007F0110927E0191E090932E038091170252
:101F0000892780931702FF91EF919F918F913F91C5
:101F10002F910F900FBE0F901F9018951F920F9248
:101F20000FB60F9211248F939F9380914007909149
:101F30004107982F882339F09150892F90E0909392
:101F400041078093400780912F0390913003982F91
:101F5000882339F09150892F90E09093300380933B
:101F60002F038091FD019091FE01982F882339F075
:101F70009150892F90E09093FE018093FD01809114
:101F8000150290911602982F882339F09150892FCD
:101F900090E0909316028093150280913E079091F5
:101FA0003F07982F882339F09150892F90E0909324
:101FB0003F0780933E0780912C0390912D03982F2B
:101FC000882339F09150892F90E090932D038093CE
:101FD0002C0380916E0790916F07982F882339F01A
:101FE0009150892F90E090936F0780936E078091B6
:101FF000310790913207982F882339F09150892F1B
:1020000090E0909332078093310780911A0290916B
:102010001B02982F882339F09150892F90E09093DC
:102020001B0280931A029F918F910F900FBE0F9009
:102030001F901895AF92BF92CF92DF92EF92FF92CE
:102040000F931F93CF93DF93EC01FB01B701D601F0
:1020500065010115110511F404E110E06115710528
:1020600011F466E970E02223C1F08081842319F025
:1020700040E050E008C0808190E0822309F491E0C4
:1020800081E09827492F8881882309F467C08081DF
:10209000822309F063C0188261C08081FF248423F9
:1020A00051F4FF24F3948881882329F481E0888304
:1020B0008FE090E012C08881882309F448C0FF2097
:1020C00089F08130C9F48091400790914107892BB4
:1020D000F1F582E0888385E090E09093410780935A
:1020E000400735C0823098F1843088F5109711F0A0
:1020F000FD01099518822BC0823069F48091400758
:1021000090914107892B19F583E0888370934107EB
:10211000609340071CC0833049F480914007909140
:102120004107892BA1F484E0888311C0843079F4BD
:102130008091400790914107892B49F41093410702
:1021400000934007C114D10411F0F601099588816C
:10215000833048F0FF2039F4188205C0F42E442360
:1021600009F4A9CFA0CFDF91CF911F910F91FF90DC
:10217000EF90DF90CF90BF90AF90089590917C004A
:10218000987F982B90937C0080917A008064809354
:102190007A0080917A0086FDFCCF20917800309102
:1021A0007900C9010895EF92FF920F931F938091D8
:1021B000150290911602892B11F02BE0A2C087E046
:1021C0000E94BE10A0E0B0E0BC01CD0123E330E0EE
:1021D00040E050E00E94EB1624E630E040E050E0A2
:1021E0000E941E1779018A018AE00E946C0C82EA23
:1021F000E81681E0F80680E0080780E0180710F490
:1022000020E007C088EB9BE09093160280931502B4
:102210002BE0D801C70180599140A040B0404297BF
:10222000A105B10508F42AE0D801C7018B589140F7
:10223000A040B0400597A105B10508F429E0D801F8
:10224000C70186589140A040B0400597A105B1054F
:1022500008F428E0D801C7018C579140A040B04055
:102260000A97A105B10508F427E0D801C7018957ED
:102270009140A040B0400397A105B10508F426E0C5
:10228000D801C70184579140A040B0400597A105EF
:10229000B10508F425E0D801C70180579140A0405E
:1022A000B0400497A105B10508F424E0D801C701A6
:1022B0008D569140A040B0400397A105B10508F4A8
:1022C00023E0D801C70188569140A040B04005974F
:1022D000A105B10508F422E0D801C7018855914055
:1022E000A040B0404097A105B10508F421E088E581
:1022F000E81681E0F80680E0080780E0180708F497
:1023000020E0822F1F910F91FF90EF900895CF92C0
:10231000DF92EF92FF920F931F930CE112E0109265
:102320001C022DB73EB7285030400FB6F8943EBF80
:102330000FBE2DBFEDB7FEB73196ADB7BEB7129643
:102340001C930E9311972CE730E0338322839583FF
:102350008483778366830E94C8162DB73EB7285FB3
:102360003F4F0FB6F8943EBF0FBE2DBFC8010E946D
:102370002108D82E882309F002C181E393E06CE0A4
:1023800070E048E152E00E948808882331F091E033
:10239000E92EF12C012D112D95C0809118029091FC
:1023A00019020C9709F0F4C08091390390913A0317
:1023B000A0913B03B0913C0387559144A645B54499
:1023C00009F0E6C089E6C82E81E393E068E070E09A
:1023D00048E152E00E948808809118029091190209
:1023E000089709F0D5C0E0903503F09036030091CE
:1023F0003703109138038091310390913203A091FB
:102400003303B09134038C3429E4920723E5A20707
:1024100024E5B20709F43EC08D3439E4930733E56F
:10242000A30734E5B30738F486569D46A447B04267
:1024300009F0AEC00FC0843631E6930734E7A30736
:1024400031E6B307C1F186569146A346B44709F079
:102450009FC020C0D801C7014097A109B1098535A7
:102460009105A105B10508F093C081E393E0B701A0
:1024700048E152E00E948808809118029091190268
:10248000A0E0B0E08E159F05A007B10709F080C05D
:10249000C7BC9ACF80915A0790915B07A0915C07C7
:1024A000B0915D07E80EF91E0A1F1B1FC801B70196
:1024B0000E94A90489CF3FEFE316F104010511053D
:1024C00009F010F4C7015DC060E070E080E090E0CA
:1024D0000E94A90481E393E060E072E048E152E0E9
:1024E0000E94880881E395E060E072E048E152E0F4
:1024F0000E9488088091330781FD03C085B5826002
:1025000002C085B5836085BD809181008160809324
:102510008100559AFF24F39480912E038823E1F3E0
:10252000809117028F25182F110F00E0C8018F5CD2
:102530009C4F60E072E048E152E00E948808809180
:102540001802909119028050924018F010922E03B8
:10255000E3CF559880E890E09093890080938800BD
:10256000809181008E7F809381008091330781FD6F
:1025700003C085B58D7F02C085B58C7F85BD8D2D4F
:1025800090E01F910F91FF90EF90DF90CF90089512
:10259000EE24FF24870196CF80917501882339F5B9
:1025A00081B1837E81B982B1837E82B91092780134
:1025B0001092770110927A011092790110927C01A9
:1025C00010927B0180E00E94440C84E090E06AE07D
:1025D00070E00E946E0D83E191E067E171E00E947E
:1025E000871181E08093750180937601089580E0E2
:1025F0000E94440C85E090E06AE070E00E946E0D5D
:1026000081B18C6181B983E191E063E271E00E9464
:10261000871184EF91E090931B0280931A0210922D
:10262000750108950F931F930E94D31000D000D01E
:1026300000D0EDB7FEB7319607E317E0ADB7BEB7F0
:1026400012961C930E9311972EE231E0338322836E
:10265000848315820E9461178DB79EB706960FB6C8
:10266000F8949EBF0FBE8DBFC8010E949B0C8DE0E9
:102670000E946C0C8AE00E946C0C86E391E0B80129
:102680000E9487111F910F9108950F931F930E942D
:10269000D310282F8B3068F501992BC000D000D0C3
:1026A00000D0EDB7FEB7319607E317E0ADB7BEB780
:1026B00012961C930E9311978EE291E0938382837E
:1026C000248315820E9461178DB79EB706960FB6B8
:1026D000F8949EBF0FBE8DBFC8010E949B0C8DE079
:1026E0000E946C0C8AE00E946C0C86E391E0B801B9
:1026F00004C083E191E06AE371E00E9487111F91B9
:102700000F9108952F923F924F925F926F927F9216
:102710008F929F92AF92BF92CF92DF92EF92FF92F1
:102720000F931F93DF93CF9300D000D000D0CDB78D
:10273000DEB72C9A80E00E94440C8FEE90E00E945D
:10274000470C81E00E94440C8FEE90E00E94470C01
:102750000E9A169A80ED97E02CEC31E0F901319752
:10276000F1F70197D9F7169880ED97E02CEC31E05E
:10277000F9013197F1F70197D9F784B1806A84B9EB
:1027800085B1806A85B93D9A459A3A9A429A8CB544
:1027900080658CBD8DB581608DBD81B18C6181B945
:1027A00080917C00806C80937C0087E880937A0025
:1027B00084E690E00E948F0D0E94390F82E084BD74
:1027C00080936E0081E8809380008091B0008260E9
:1027D0008093B0008091B10087608093B10084EB5A
:1027E0008093B30080917000826080937000789431
:1027F000439A119A3E9A3C9A5E9A8DE00E946C0C24
:102800008AE00E946C0C86E491E00E949B0C8DE0B3
:102810000E946C0C8AE00E946C0C198246980E94FF
:10282000A90182E497E00E941F0B4424552422242E
:1028300033241E821D82772488249924662463947D
:1028400080912F0390913003892B41F4019906C0A8
:1028500084E190E09093300380932F0380912F03C5
:10286000909130030197C9F4019917C080917401C8
:10287000882399F491E0909374018CE491E00E9494
:102880009B0C8DE00E946C0C8AE00E946C0C83E132
:1028900091E065E571E00E948711019B21C0809164
:1028A0002F0390913003892BD9F4809174018823F0
:1028B000B9F00E94D310109274018B3029F483E197
:1028C00091E06AE371E004C083E191E061E671E0C8
:1028D0000E94871184E190E09093300380932F034E
:1028E0008091FD019091FE01892B09F050C08AE092
:1028F00090E09093FE018093FD010E94DE0E411452
:10290000510499F42114310481F48D819E81892B25
:1029100061F44090EA015090EB012090EF0130907B
:10292000F0018091ED019091EE018091EA0190918A
:10293000EB01449748165906E0F08091EA01909126
:10294000EB01449684159505A0F08091EF019091DC
:10295000F00144972816390660F08091EF019091BC
:10296000F00144968215930520F08091ED0190913D
:10297000EE014090EA015090EB012090EF01309081
:10298000F0018091ED019091EE019E838D83809105
:102990003E0790913F07892B09F0A3C080917501F4
:1029A000882309F09EC081E090E090933F078093D8
:1029B0003E0780E00E94440C772031F4862D90E0A1
:1029C0006AE070E00E946E0D0E94FF0C182F8823B1
:1029D00009F487C081E00E94440C113409F075C0ED
:1029E00091E0791621F48A81882E99241CC082E016
:1029F000781639F48A819AE0899F400111248B81ED
:102A000010C093E0791679F48A8194E6899F400199
:102A100011248B812AE0829FC0011124880E991E07
:102A20008C81880E911C81E0681629F490927801BF
:102A3000809277010FC092E0691629F490927A0192
:102A40008092790107C083E0681621F490927C019E
:102A500080927B01639494E0691611F46624639478
:102A600081E00E94440C80917701909178016AE0A6
:102A700070E00E946E0D8DE00E946C0C8AE00E9456
:102A80006C0C8091790190917A016AE070E00E946B
:102A90006E0D8DE00E946C0C8AE00E946C0C80919F
:102AA0007B0190917C016AE070E00E946E0D8DE0E8
:102AB0000E946C0C8AE00E946C0C8DE00E946C0CF1
:102AC0008AE00E946C0C77240CC0E2E0F0E0EC0F8E
:102AD000FD1FE70DF11D10531083739480E00E94D9
:102AE000440C80912C0390912D03892BA1F420910B
:102AF000770130917801C9010197CB9738F4369569
:102B0000279530932D0320932C0304C010922D039E
:102B100010922C03129880912C0390912D03892BF5
:102B200059F080912C0390912D030A9728F48091FD
:102B30007601882309F4129A80916E0790916F07AD
:102B4000892BA1F42091790130917A01C901019773
:102B5000CB9738F43695279530936F0720936E07FF
:102B600004C010926F0710926E07139880916E0741
:102B700090916F07892B59F080916E0790916F07A4
:102B80000A9728F480917601882309F4139A80919A
:102B9000310790913207892BA1F420917B0130916C
:102BA0007C01C9010197CB9738F43695279530936E
:102BB00032072093310704C0109232071092310778
:102BC00014988091310790913207892B59F08091A8
:102BD0003107909132070A9728F480917601882373
:102BE00009F4149ACE01019666E270E048E020E014
:102BF00004E610E0E2E3EE2EF12C52E1C52E53E1A3
:102C0000D52E3CECA32E32E1B32E0E941A108091F7
:102C10001A0290911B02019709F012CE10927601D0
:102C20000FCE8A3019F48DE001D08AE0FF93EF9344
:102C3000E0918001F0918101309709F00995EF91C1
:102C4000FF910895FC018591803011F0EADFFBCF00
:102C50000895FF27E0E230E247FF0CC0419597FF5F
:102C600009C0EDE26095709580959095611D711D8C
:102C7000811D911D27FF02C0219530E350E2AA2754
:102C8000660F771F881F991FAA1FA41710F0A41B97
:102C900063955A95A9F7AA3008F0A95FA05DAF9394
:102CA000F395611571058105910541F7ED3211F438
:102CB000EF93F395F21718F43F93F395FBCF8F91B1
:102CC000B0DFFA95E1F70895E991F99185918030A7
:102CD00021F0853219F0A5DFF9CF089520E0E894BE
:102CE00055915532C1F3503311F4689455915A33CC
:102CF00048F4505390F3220F022E220F220F200D82
:102D0000250FF4CF0EF4219589919991533619F33B
:102D1000533729F1533559F1BC0188279927E89495
:102D20005C3621F48991999168945591543639F41F
:102D300046EF7EF077FF0DC08FEF9FEF0AC055374B
:102D40004AE039F0583540E121F0523642E009F0CE
:102D50000895FF93EF937DDFEF91FF91B7CFFF933E
:102D6000EF93FC0181918030B9F35BDFFBCFFF93E0
:102D7000EF9368DFF1CFDF93CF93CDB7DEB7259622
:102D8000A3DFCF91DF910895F70181937F0108952B
:102D9000DF93CF93CDB7DEB72596E0918001F09118
:102DA0008101EF93FF93E4ECF6E1E0938001F0936F
:102DB0008101FF92EF92E990F99086DFF70110828E
:102DC000EF90FF90FF91EF91E0938001F0938101EC
:102DD000CF91DF910895629FD001739FF001829F90
:102DE000E00DF11D649FE00DF11D929FF00D839F9A
:102DF000F00D749FF00D659FF00D9927729FB00D37
:102E0000E11DF91F639FB00DE11DF91FBD01CF0149
:102E100011240895AA1BBB1B51E107C0AA1FBB1FA9
:102E2000A617B70710F0A61BB70B881F991F5A9556
:102E3000A9F780959095BC01CD010895A1E21A2EC5
:102E4000AA1BBB1BFD010DC0AA1FBB1FEE1FFF1F4E
:102E5000A217B307E407F50720F0A21BB30BE40B9E
:102E6000F50B661F771F881F991F1A9469F76095E5
:102E70007095809590959B01AC01BD01CF0108959F
:102E8000FB019F01E8944230C4F04532B4F44A306B
:102E900029F497FB1EF4909581959F4F642F772717
:102EA0000E940A17805D8A330CF0895D8193CB0103
:102EB0000097A1F716F45DE251931082C9010C94BA
:102EC0007819AEE0B0E0E7E6F7E10C94201A0D893E
:102ED0001E8986E08C831A8309838FEF9FE79E8388
:102EE0008D839E01275E3F4FCE0101966F89788DBD
:102EF000A9010E9485172F813885020F131FF80141
:102F000010822E96E4E00C943C1AABE0B0E0EBE8C3
:102F1000F7E10C94121A3C012B015A01FC011782B3
:102F20001682838181FD03C06FEF7FEFC6C19AE0F7
:102F3000892E1E010894211C311CF3012381F2010A
:102F400023FD859123FF81912F01882309F4B2C1CC
:102F5000853239F423FD859123FF81912F0185323C
:102F600029F490E0B3010E948819E7CF982FFF243D
:102F7000EE249924FFE1FF15D0F09B3269F09C32DA
:102F800028F4903259F0933291F40EC09D3249F0FA
:102F9000903369F441E024C052E0F52A84E0F82A35
:102FA00028C098E0F92A25C0E0E1FE2A22C0F7FCFB
:102FB00029C0892F80538A3070F4F6FE05C0989C92
:102FC000902C1124980E15C0E89CE02C1124E80EDA
:102FD000F0E2FF2A0EC09E3229F4F6FC6BC140E4F9
:102FE000F42A07C09C3619F450E8F52A02C0983636
:102FF00049F4F20123FD959123FF91912F0199232B
:1030000009F0B8CF892F8554833018F0805283306F
:1030100038F444E050E0A40EB51E5FE359830FC0BE
:10302000933631F0933779F0933509F056C020C0CC
:10303000F5018081898342E050E0A40EB51E610154
:1030400001E010E012C0F501C080D180F6FC03C0A1
:103050006FEF7FEF02C0692D70E042E050E0A40EF8
:10306000B51EC6010E946D198C015FE7F52214C0E0
:10307000F501C080D180F6FC03C06FEF7FEF02C086
:10308000692D70E042E050E0A40EB51EC6010E941A
:1030900062198C0150E8F52AF3FE07C01AC080E2DD
:1030A00090E0B3010E948819EA948E2D90E00817F1
:1030B0001907A8F30EC0F601F7FC8591F7FE819180
:1030C0006F0190E0B3010E948819E110EA94015069
:1030D00010400115110579F7EAC0943611F09936C0
:1030E00069F5F7FE08C0F5012081318142815381E5
:1030F00084E090E00AC0F501808191819C01442721
:1031000037FD4095542F82E090E0A80EB91E9FE64F
:10311000F92257FF09C050954095309521953F4FB2
:103120004F4F5F4FE0E8FE2ACA01B901A1012AE032
:1031300030E00E94B419D82ED21840C0953729F437
:103140001F2D1F7E2AE030E01DC01F2D197F9F36E6
:1031500061F0903720F4983509F0ACC00FC090377B
:1031600039F0983709F0A6C004C028E030E00AC062
:10317000106114FD146020E130E004C014FD1660FD
:1031800020E132E017FF08C0F50160817181828182
:10319000938144E050E008C0F50180819181BC0139
:1031A00080E090E042E050E0A40EB51EA1010E9434
:1031B000B419D82ED2188FE7F82EF122F6FE0BC0E4
:1031C0005EEFF522D91438F4F4FE07C0F2FC05C016
:1031D0008FEEF82202C01D2D01C0192DF4FE0DC086
:1031E000FE01ED0DF11D8081803319F499EEF92275
:1031F00008C01F5FF2FE05C003C08F2D867809F05E
:103200001F5F0F2DF3FC14C0F0FE0FC01E1510F051
:103210009D2C0BC09D2C9E0C911A1E2D06C080E289
:1032200090E0B3010E9488191F5F1E15C0F304C00F
:103230001E1510F4E11A01C0EE2404FF0FC080E354
:1032400090E0B3010E94881902FF1DC001FD03C078
:1032500088E790E00EC088E590E00BC0802F86786C
:1032600091F001FF02C08BE201C080E2F7FC8DE229
:1032700090E0B3010E94881906C080E390E0B3019A
:103280000E9488199A94D914C0F3DA94F101ED0DD3
:10329000F11D808190E0B3010E948819DD20A9F71B
:1032A00006C080E290E0B3010E948819EA94EE2003
:1032B000C1F743CEF30166817781CB012B96E2E122
:1032C0000C942E1AFC010590615070400110D8F743
:1032D000809590958E0F9F1F0895FC01615070405E
:1032E00001900110D8F7809590958E0F9F1F08953B
:1032F000DC01FC01672F71917723E1F7329704C05D
:103300007C916D9370836291AE17BF07C8F30895E7
:103310000F931F93CF93DF938C01EB018B8181FF80
:103320001BC082FF0DC02E813F818C819D8128179B
:10333000390764F4E881F9810193F983E88306C0D1
:10334000E885F985802F0995892B31F48E819F813D
:1033500001969F838E8302C00FEF1FEFC801DF919C
:10336000CF911F910F910895FA01AA27283051F1AA
:10337000203181F1E8946F936E7F6E5F7F4F8F4FA6
:103380009F4FAF4FB1E03ED0B4E03CD0670F781F05
:10339000891F9A1FA11D680F791F8A1F911DA11DEA
:1033A0006A0F711D811D911DA11D20D009F4689423
:1033B0003F912AE0269F11243019305D3193DEF6CB
:1033C000CF010895462F4770405D4193B3E00FD081
:1033D000C9F7F6CF462F4F70405D4A3318F0495D6C
:1033E00031FD4052419302D0A9F7EACFB4E0A6954F
:1033F0009795879577956795BA95C9F70097610571
:10340000710508959B01AC010A2E069457954795C6
:1034100037952795BA95C9F7620F731F841F951FBB
:10342000A01D08952F923F924F925F926F927F92CC
:103430008F929F92AF92BF92CF92DF92EF92FF92C4
:103440000F931F93CF93DF93CDB7DEB7CA1BDB0B70
:103450000FB6F894DEBF0FBECDBF09942A88398815
:1034600048885F846E847D848C849B84AA84B9841C
:10347000C884DF80EE80FD800C811B81AA81B98128
:10348000CE0FD11D0FB6F894DEBF0FBECDBFED013C
:063490000895F894FFCF3F
:10349600583D0020593D00205A3D004144584C20DB
:1034A6004F4B00706F7A0077796C5F6B696A2E7785
:1034B6006176006B696A5F776C2E776176002564AA
:1034C600302E77617600616B75006C61645F7A619E
:1034D6006B2E776176005354415254006C61642020
:1034E600706F646C006C61645F706F642E776176D8
:0E34F600006C61645F6F646C2E77617600007D
:00000001FF
