:100000000C9434000C9451000C9451000C94510049
:100010000C9451000C9451000C9451000C9451001C
:100020000C9451000C9451000C9451000C9451000C
:100030000C9451000C9451000C9451000C945100FC
:100040000C9451000C9451000C94D2000C9491002B
:100050000C9464000C9451000C9451000C945100C9
:100060000C9451000C94510011241FBECFEFD8E026
:10007000DEBFCDBF11E0A0E0B1E0E0E2F3E002C0FE
:1000800005900D92AC30B107D9F711E0ACE0B1E0CA
:1000900001C01D92A034B107E1F70E9415010C9434
:1000A0008E010C9400009093C5008093C400E1EC95
:1000B000F0E088E1808386E88093C200529A5A9AE1
:1000C0008081886D808308951F920F920FB60F92E2
:1000D00011245A980F900FBE0F901F901895282F3B
:1000E00090910C019F5F9F7080910D019817E1F333
:1000F000E92FF0E0E25FFE4F208390930C018091A6
:10010000C10080628093C1000895CF93DF93EC011A
:1001100002C00E946F0089918823D9F7DF91CF91A7
:1001200008951F920F920FB60F9211248F939F93F1
:10013000EF93FF9390910C0180910D01981779F046
:1001400080910D018F5F8F7080930D01E0910D0103
:10015000F0E0E25FFE4F80818093C60005C0809191
:10016000C1008F7D8093C100FF91EF919F918F918E
:100170000F900FBE0F901F90189590911E018091C7
:100180001F01981711F480E0089580911F018F5F7F
:100190008F7180931F01E0911F01F0E0E05EFE4F40
:1001A000808108951F920F920FB60F9211248F93A2
:1001B0009F93EF93FF939091C600E0911E01EF5F34
:1001C000EF7180911F01E81731F0E0931E01F0E01C
:1001D000E05EFE4F9083FF91EF919F918F910F9082
:1001E0000FBE0F901F9018950F931F93DF93CF931F
:1001F000CDB7DEB761970FB6F894DEBF0FBECDBFA7
:10020000AB018E010F5F1F4FB8010E944901C80169
:100210000E94850061960FB6F894DEBF0FBECDBF79
:10022000CF91DF911F910F910895FF920F931F932C
:10023000CF93DF938DE490E00E945300789481E0A7
:1002400087B9C0E0D0E00CE211E0FF24F39480E035
:1002500091E00E948500CE016AE070E00E94F40007
:100260008DE00E946F008AE00E946F0088E893E1B1
:10027000F8013197F1F70197D9F788B18F2588B93F
:1002800080ED97E0F8013197F1F70197D9F72196C2
:10029000DECFFB019F01E8944230C4F04532B4F454
:1002A0004A3029F497FB1EF4909581959F4F642F57
:1002B00077270E947A01805D8A330CF0895D8193F3
:1002C000CB010097A1F716F45DE251931082C901AA
:1002D0000C946A01DC01FC01672F71917723E1F72F
:1002E000329704C07C916D9370836291AE17BF0703
:1002F000C8F30895AA1BBB1B51E107C0AA1FBB1F6F
:10030000A617B70710F0A61BB70B881F991F5A95A1
:10031000A9F780959095BC01CD010895F894FFCF81
:0C03200055415254205445535420000015
:00000001FF
