:100000000C9437000C9454000C9454000C9454003D
:100010000C9454000C9454000C9454000C9407104D
:100020000C9454000C9454000C9454000C94540000
:100030000C9454000C9454000C94FA100C9454003A
:100040000C9454000C9454000C94B90C0C94780C3F
:100050000C944B0C0C9454000C9454000C945400CD
:100060000C9454000C94540025732F257300112414
:100070001FBECFEFD8E0DEBFCDBF11E0A0E0B1E002
:10008000E4E7F7E302C005900D92A03CB107D9F771
:1000900017E0A0ECB1E001C01D92A738B107E1F76D
:1000A0000E949F150C94B81B0C940000DF92EF92F5
:1000B000FF920F931F93D82E7A018B0187FF0CC0FC
:1000C00087E740E050E060E070E00E945600823038
:1000D00008F049C08FE7D8225F9A8FEF8EBD0DB42C
:1000E00007FEFDCF8EB55F988FEF8EBD0DB407FE76
:1000F000FDCF8EB5DEBC0DB407FEFDCF812F992755
:10010000AA27BB278EBD0DB407FEFDCFC801AA27C5
:10011000BB278EBD0DB407FEFDCFBB27A12F902FAF
:100120008F2D8EBD0DB407FEFDCFEEBC0DB407FEC6
:10013000FDCF80E4D81611F485E906C088E4D8160E
:1001400011F487E801C081E08EBD0DB407FEFDCF3C
:100150009AE02FEF2EBD0DB407FEFDCF8EB587FFC1
:1001600002C09150B9F71F910F91FF90EF90DF906F
:100170000895EF92FF920F931F93CF93DF937C012B
:10018000E9018091C20183FD07C039E0440F551F8A
:10019000661F771F3A95D1F781E50E9456008823A4
:1001A00009F03EC080E395E73FEF3EBD0DB407FE8A
:1001B000FDCF2EB52F3F19F40197B9F731C02E3F6F
:1001C00079F5222733272C1B3D0B2E5F3D4F201B3B
:1001D000310B209741F08FEF8EBD0DB407FEFDCFA0
:1001E0009EB52197C9F7E114F10479F09FEF9EBD08
:1001F0000DB407FEFDCF8EB5F7018083015010408E
:1002000021F00894E11CF11CF2CF8FEF8EBD0DB4EC
:1002100007FEFDCF9EB521503040C1F790E001C0F0
:1002200091E05F9A8FEF8EBD0DB407FEFDCF8EB5C6
:10023000892FDF91CF911F910F91FF90EF9008953B
:10024000FC01009701F12091C0013091C1010AC069
:1002500080818EBD0DB407FEFDCF319641505040D8
:10026000215030404115510529F43093C1012093AC
:10027000C00107C02115310559F71092C101109234
:10028000C00190E05AC0411551056105710519F191
:100290008091C20183FD07C0E9E0440F551F661F2E
:1002A000771FEA95D1F788E50E945600882311F060
:1002B00091E043C08FEF8EBD0DB407FEFDCF8EEFF2
:1002C0008EBD0DB407FEFDCF80E092E09093C1019A
:1002D0008093C001D6CF8091C0019091C101029658
:1002E00002C01EBC01970097E1F70DB407FEFDCFD9
:1002F0008FEF8EBD0DB407FEFDCF8EB58F718530AB
:10030000A1F428EE3DEF9FEF02C0215030409EBD8A
:100310000DB407FEFDCF8EB58F3F21F021153105BD
:10032000A1F703C090E0232B09F491E05F9A8FEFCF
:100330008EBD0DB407FEFDCF8EB5892F0895CF92E7
:10034000DF92EF92FF920F931F93DF93CF9300D032
:1003500000D0CDB7DEB75F9908C080E090E040E004
:1003600050E060E070E00E94200184E69FEF9EBDB7
:100370000DB407FEFDCF2EB58150C9F780E440E0F3
:1003800050E060E070E00E945600813009F06EC0DD
:1003900088E44AEA51E060E070E00E945600813053
:1003A00009F042C06E010894C11CD11C76019FEF78
:1003B0009E012B5F3F4F9EBD0DB407FEFDCF8EB556
:1003C000F70181937F01E217F307A9F78B81813051
:1003D00009F04CC08C818A3A09F048C000EE1EE258
:1003E00004C00150104009F441C089EE40E050E0E3
:1003F00060E070E40E945600882399F752C09FEF96
:100400009EBD0DB407FEFDCF8EB5F60181936F0141
:10041000EE15FF05A9F7898186FD03C004E0F02EE3
:1004200026C01CE0F12E23C089EE40E050E060E0E1
:1004300070E00E945600823028F0B1E4EB2EFF24D9
:10044000F39404C0A9EEEA2EF2E0FF2E08EA11E6CA
:1004500003C00150104051F08E2D40E050E060E0AC
:1004600070E00E9456008823A1F726C0FF24F09276
:10047000C2015F9A8FEF8EBD0DB407FEFDCF8EB522
:1004800080E0FF2009F481E00F900F900F900F9013
:10049000CF91DF911F910F91FF90EF90DF90CF9060
:1004A00008958AE740E050E060E070E00E94560066
:1004B000882309F4A4CFDACF80E540E052E060E081
:1004C00070E00E945600882389F6D1CF1F9380E008
:1004D00090E040E050E060E070E00E94200110E019
:1004E0000BC080E090E040E050E060E070E00E94EF
:1004F00020011F5F143611F0882399F71F9108958A
:10050000CF92DF92EF92FF920F931F93CF93DF93DF
:100510006C01C091C301D091C401FC011182108211
:1005200024813581468157812130310541055105AE
:1005300009F45BC088859985AA85BB85281739078A
:100540004A075B0708F051C02115310541055105E7
:1005500039F48881833021F4288939894A895B8973
:10056000F6012087318742875387211531054105E0
:10057000510581F18EEFE82E8FEFF82E8FEF082FC7
:100580008FEF182FE20EF31E041F151F8885998523
:10059000AA85BB850297A109B109E816F9060A07E1
:1005A0001B0728F020E030E040E050E017C0298130
:1005B00030E040E050E0C801B7010E944E189B01B6
:1005C000AC018C899D89AE89BF89280F391F4A1FCC
:1005D0005B1F04C0288939894A895B89F601248711
:1005E00035874687578780E001C081E0DF91CF9152
:1005F0001F910F91FF90EF90DF90CF9008956F9231
:100600007F928F929F92AF92BF92CF92DF92EF92A2
:10061000FF920F931F93DF93CF9300D000D0CDB7FD
:10062000DEB74B015C016090C3017090C40182E0B1
:1006300088169104A104B10408F4B4C0F3018085C4
:100640009185A285B38588169906AA06BB0608F08F
:10065000A9C08081823009F45FC0833009F47BC077
:10066000813009F09FC0C40196958795880D991D2A
:100670009C013170892F992786956C01EE24FF2407
:10068000F3014485558566857785CE010196F1E0B5
:100690002F3F3F0749F0C40ED51EE61EF71EB701D7
:1006A000A60102E010E01EC04C0D5D1D6E1D7F1DF9
:1006B0002FEF31E001E010E00E94B900882309F03B
:1006C00071C0F30144855585668577854F5F5F4F1F
:1006D0006F4F7F4F4C0D5D1D6E1D7F1DCE0102962D
:1006E00020E030E00E94B900882309F05BC06981F6
:1006F0007A81C40181709070892B39F0A4E07695DD
:100700006795AA95E1F79B0123C09B0140E050E06B
:100710003F70407050704AC077276B2D5A2D492D7D
:10072000F30184859585A685B785480F591F6A1FF3
:100730007B1F94013070220F331FCE01019602E01F
:1007400010E00E94B900882369F589819A819C0193
:1007500040E050E02BC0B501A40127E076956795F5
:10076000579547952A95D1F7F30184859585A685F8
:10077000B785480F591F6A1F7B1F94012F77307070
:10078000220F331F220F331FCE01019604E010E029
:100790000E94B900882331F429813A814B815C8120
:1007A0005F7004C021E030E040E050E0B901CA01D0
:1007B0000F900F900F900F90CF91DF911F910F919D
:1007C000FF90EF90DF90CF90BF90AF909F908F9071
:1007D0007F906F900895AF92BF92CF92DF92EF9289
:1007E000FF920F931F93CF93DF935C01C091C301DE
:1007F000D091C401FC01C080D1800894C11CD11CDF
:10080000C114D10409F48FC02485358546855785E8
:10081000211531054105510509F485C0C6018F70C8
:100820009070892B09F07AC02F5F3F4F4F4F5F4F79
:10083000248735874687578740855185628573852C
:10084000411551056105710539F48C819D81C816EA
:10085000D90608F463C067C0898190E001979601CA
:10086000E4E036952795EA95E1F782239323892BD7
:1008700009F054C0CB01BA010E94FF029B01AC01F8
:10088000623071058105910510F481E04DC08885C5
:100890009985AA85BB85281739074A075B0708F0A1
:1008A00042C0F5012087318742875387C091C30139
:1008B000D091C4018EEFE82E8FEFF82E8FEF082F26
:1008C0008FEF182FE20EF31E041F151F88859985E0
:1008D000AA85BB850297A109B109E816F9060A079E
:1008E0001B0728F020E030E040E050E012C02981F2
:1008F00030E040E050E0C801B7010E944E189B0173
:10090000AC018C899D89AE89BF89280F391F4A1F88
:100910005B1FF5012487358746875787F501D1820C
:10092000C08280E001C083E0DF91CF911F910F91E1
:10093000FF90EF90DF90CF90BF90AF9008952F92EF
:100940003F924F925F926F927F928F929F92AF925F
:10095000BF92CF92DF92EF92FF920F931F93CF93AC
:10096000DF93E82FC091C301D091C401209711F407
:1009700086E00DC18A8180FD02C085E008C1AC8C93
:10098000BD8CCE8CDF8C4E2F592FCB01DA013C0170
:100990004D01A614B704C804D90410F4350146016A
:1009A000288D398D4A8D5B8D188E198E1A8E1B8E6F
:1009B000611471048104910409F4E8C08981A82EAE
:1009C000BB24CC24DD2499E0AA0CBB1CCC1CDD1C70
:1009D0009A95D1F72115310541055105B1F119015C
:1009E0002A0108942108310841085108C401B301C3
:1009F0006150704080409040A60195010E948D1882
:100A000079018A01C201B101A60195010E948D18E8
:100A1000E216F30604071507C0F088279927DC01C2
:100A20008A199B09AC09BD0982219321A421B52112
:100A3000888F998FAA8FBB8F681A790A8A0A9B0AB6
:100A40002CA13DA14EA15FA133C028A139A14AA18B
:100A50005BA12CA33DA34EA35FA32AC0CA01B90189
:100A60000E94FF029B01AC01623071058105910576
:100A700008F489C088859985AA85BB852817390718
:100A80004A075B0708F07FC02CA33DA34EA35FA3DA
:100A9000888D998DAA8DBB8D8A0D9B1DAC1DBD1DAA
:100AA000888F998FAA8FBB8F6A187B088C089D0846
:100AB000A614B704C804D90488F2888D998DAA8D2C
:100AC000BB8D860D971DA81DB91D888F998FAA8F84
:100AD000BB8F0091C3011091C4018EEFA82E8FEF40
:100AE000B82E8FEFC82E8FEFD82EA20EB31EC41EC5
:100AF000D51EF80180859185A285B3850297A1094D
:100B0000B109A816B906CA06DB06E8F5218130E06E
:100B100040E050E0C601B5010E944E189B01AC01B7
:100B2000F80184899589A689B789280F391F4A1F3A
:100B30005B1F211531054105510529F1D401C30180
:100B400019E0B695A795979587951A95D1F7982F9F
:100B50008B83FFEFEF2EF1E0FF2E012D112D6E2084
:100B60007F2080229122611471048104910471F02C
:100B7000280F311D411D511D28A739A74AA75BA782
:100B80009F5F9B8303C01A8281E001C080E0DF91F8
:100B9000CF911F910F91FF90EF90DF90CF90BF907A
:100BA000AF909F908F907F906F905F904F903F900D
:100BB0002F900895AF92BF92CF92DF92EF92FF9263
:100BC0000F931F93DF93CF93CDB7DEB7AC970FB6DC
:100BD000F894DEBF0FBECDBF7C015B01E091C30185
:100BE000F091C401309711F486E0C6C0CE010D9695
:100BF00097838683CE010196D70113969C938E939B
:100C000012976115710521F4C7010E948002B4C0DA
:100C1000C680D78083E026C0F701208131812F7004
:100C20003070E5E0220F331FEA95E1F7C60100E2DC
:100C300010E00E94B900882311F081E01FC0D601A6
:100C40009C91992309F4A9C01B968C91953E29F09B
:100C50009E3219F08F7383FF1DC0C7010E94EB0302
:100C6000882361F4F70144855585668577854115AC
:100C700051056105710581F6882361F0D7011C9645
:100C80001D921D921D921C921F97833019F088238C
:100C900009F072C09501275F3F4FF7018485958564
:100CA000A685B7850097A105B10509F456C0E09166
:100CB000C301F091C4014681578180E090E0FA01C0
:100CC000E80FF91FE081E03251F0E53009F4E5EE7C
:100CD000D901ED939D0101968830910581F7FA01C4
:100CE0008085803211F4F90110C0F9018EE2819300
:100CF000DA012C5F3F4F18968C911897803229F0BB
:100D000081931196E217F307B1F7DA011B968C91E4
:100D1000D50118968C93DA015C960D911D912D9159
:100D20003C915F97D5010D931D932D933C931397A1
:100D3000DA0158968D919C915997D50115969C93FF
:100D40008E931497DA0156968D919C915797D50101
:100D500017969C938E9316979F01F9011082C701F5
:100D60000E94EB03833041F4D7011C961D921D9223
:100D70001D921C921F9780E0AC960FB6F894DEBFD0
:100D80000FBECDBFCF91DF911F910F91FF90EF90DC
:100D9000DF90CF90BF90AF90089583E06FCF8F9298
:100DA0009F92AF92BF92CF92DF92EF92FF920F93FA
:100DB0001F93CF93DF93EC017B0103C00894E11CE8
:100DC000F11CF70180818032C9F38F3219F4089445
:100DD000E11CF11C1C821D821E821F82F701808192
:100DE000813268F4CE010E948002B82EE091C301E6
:100DF000F091C4010680F781E02D1082ABC080E243
:100E0000882E99249394AA81BB81FD018BE090E008
:100E100001C0819201972FEF8F3F9207D1F720E019
:100E2000AA2438E002C028E03BE0F701EA0DF11DFA
:100E30009081A3949132B0F09F32A1F09E3211F0D4
:100E4000231728F0383071F49E3269F30BC0892FD4
:100E500081568A3108F49052FD01E20FF11D908312
:100E60002F5FE3CF1B961C921B97913210F41B96B9
:100E70009C92CE010E948002B82E882309F03FC0C8
:100E8000E091C301F091C401C680D7804C855D8597
:100E90006E857F85288139812F70307005E0220FA3
:100EA000331F0A95E1F7C60100E210E00E94B90085
:100EB000882311F081E022C0F6018081882309F4A3
:100EC00057C0838583FD15C0D6018A819B819C0113
:100ED000F9012BE030E0215030408FEF2F3F3807F1
:100EE00009F449C09C918081981719F411963196A4
:100EF000F2CFCE010E94EB03882341F2B82EE3E04B
:100F0000BE1641F5EA81FB818385882309F122C061
:100F1000E091C301F091C4010680F781E02D838543
:100F200084FF16C0EA0CF11C84899589A0E0B0E02A
:100F3000DC0199278827228D338D40E050E0822BF9
:100F4000932BA42BB52B8C839D83AE83BF835BCF68
:100F5000A4E0BA2E8B2DDF91CF911F910F91FF90BE
:100F6000EF90DF90CF90BF90AF909F908F900895BB
:100F7000F3E0BF2EC7CFEA81FB818385882341F24E
:100F8000E9CFEF92FF920F931F93DF93CF93CDB7EB
:100F9000DEB7AC970FB6F894DEBF0FBECDBF8C01A5
:100FA000E091C301F091C401309711F486E032C0A2
:100FB0003DE0E32EF12CEC0EFD1EF782E682CE0121
:100FC0000196F80193838283C8010E94CF0688238B
:100FD000F1F48D858823C1F0888D84FF1AC0F70154
:100FE00084899589A0E0B0E0DC0199278827228DCB
:100FF000338D40E050E0822B932BA42BB52BF801CE
:1010000084839583A683B783C8010E9480028330BE
:1010100009F484E0AC960FB6F894DEBF0FBECDBFE6
:10102000CF91DF911F910F91FF90EF900895EF9274
:10103000FF920F931F93DF93CF93CDB7DEB7EC975B
:101040000FB6F894DEBF0FBECDBFBC010091C30147
:101050001091C4010115110511F466E041C0F801B9
:1010600012825DE1E52EF12CEC0EFD1EF782E68288
:10107000CE010196988B8F87CE010D960E94CF06E8
:10108000682F882369F58D8D882349F188A584FD13
:1010900026C0F70184899589A0E0B0E0DC0199279A
:1010A0008827228D338D40E050E0822B932BA42B98
:1010B000B52BF80180A391A3A2A3B3A3F701848D5C
:1010C000958DA68DB78DF801848F958FA68FB78FDC
:1010D000108E118E128E138E81E0828301C063E028
:1010E000862FEC960FB6F894DEBF0FBECDBFCF9122
:1010F000DF911F910F91FF90EF9008954F925F92B3
:101100006F927F928F929F92AF92BF92CF92DF9217
:10111000EF92FF920F931F93CF93DF933C016B01EC
:101120004A01C091C301D091C401FA011182108219
:10113000209711F486E0DAC08A8180FD02C085E044
:10114000D5C02C8D3D8D4E8D5F8D888D998DAA8D4E
:10115000BB8D281B390B4A0B5B0BCB01A0E0B0E029
:10116000281739074A075B0708F469015301412C26
:10117000F2E05F2EB3C0E88CF98C0A8D1B8DD8018C
:10118000C7019170A070B0700097A105B10509F07A
:101190006BC0C801B701E9E096958795779567958B
:1011A000EA95D1F7298130E040E050E00E948D18A7
:1011B0006115710581059105D9F4E114F10401056A
:1011C000110529F468A179A18AA19BA106C06CA18F
:1011D0007DA18EA19FA10E94FF0262307105810551
:1011E000910508F481C06CA37DA38EA39FA31B82ED
:1011F0000091C3011091C4012CA13DA14EA15FA19A
:101200002250304040405040F80180859185A285B1
:10121000B3850297A109B109281739074A075B0767
:1012200008F062C0618170E080E090E00E944E189A
:101230009B01AC01F80184899589A689B789280F9B
:10124000391F4A1F5B1F211531054105510509F45E
:101250004BC08B81280F311D411D511D28A739A777
:101260004AA75BA78F5F8B83088D198D2A8D3B8DD5
:10127000C8019170A201481B590B76014C155D0500
:1012800008F47A016114710419F480E090E001C05F
:10129000C50148A559A56AA57BA5980131708701AC
:1012A0000E94B900882301F5C701A0E0B0E0288DB5
:1012B000398D4A8D5B8D280F391F4A1F5B1F288F80
:1012C000398F4A8F5B8FAE0CBF1CCE18DF08F4013C
:1012D000808191818E0D9F1D91838083C114D104E3
:1012E00009F049CF80E002C01A8281E0DF91CF91FE
:1012F0001F910F91FF90EF90DF90CF90BF90AF9034
:101300009F908F907F906F905F904F900895AF92D5
:10131000BF92CF92DF92EF92FF920F931F93CF93E2
:10132000DF93B82EA92E6A017B012EEF31E002E097
:1013300010E00E94B900882311F023E033C0CB2DC8
:10134000DA2D8881998185559A4A11F022E02AC0C8
:101350008B2D9A2DB701A60126E330E002E010E0C4
:101360000E94B900882339F4888199818654914478
:1013700011F420E017C08B2D9A2DB701A60122E5AC
:1013800030E002E010E00E94B900882311F021E073
:1013900009C020E0888199818654914409F421E0B4
:1013A00081E02827822FDF91CF911F910F91FF902D
:1013B000EF90DF90CF90BF90AF9008954F925F92E3
:1013C0006F927F928F929F92AF92BF92CF92DF9255
:1013D000EF92FF920F931F93CF93DF93FC015B017A
:1013E0003A01C091C301D091C401DA011D921C924F
:1013F000209711F486E008C18A8190E080FD02C048
:1014000085E002C1807490706115710589F4892BA3
:1014100059F080E090E040E050E060E070E00E9431
:101420002001882309F0EEC08A818F7B8A83E8C07F
:10143000892B51F4888D998DAA8DBB8D80709E7FEC
:10144000888F998FAA8FBB8F2C8D3D8D4E8D5F8D90
:10145000888D998DAA8DBB8D281B390B4A0B5B0B90
:10146000C501A0E0B0E0281739074A075B0708F478
:1014700059014F01412CB2E05B2EBEC0E88CF98CC3
:101480000A8D1B8DC7019170892B09F077C0C801A7
:10149000B701A9E09695879577956795AA95D1F7B5
:1014A000298130E040E050E00E948D1861157105FF
:1014B00081059105D9F4E114F1040105110529F420
:1014C00068A179A18AA19BA106C06CA17DA18EA172
:1014D0009FA10E94FF02623071058105910508F409
:1014E00091C06CA37DA38EA39FA31B820091C30117
:1014F0001091C4012CA13DA14EA15FA1225030400A
:1015000040405040F80180859185A285B3850297BF
:10151000A109B109281739074A075B0708F072C00B
:10152000618170E080E090E00E944E189B01AC0168
:10153000F80184899589A689B789280F391F4A1F20
:101540005B1F211531054105510509F45BC08B81F5
:10155000BA01A901480F511D611D711D48A759A766
:101560006AA77BA78F5F8B8380E090E00E942001B9
:10157000882309F047C08A8180648A83888D998D89
:1015800091709201281B390B65012A153B0508F45F
:101590006901760100E010E0C401B801A7010E94D2
:1015A0002001882379F5888D998DAA8DBB8D8E0DAC
:1015B0009F1DA01FB11F9C01888F998FAA8FBB8F81
:1015C000D3018D919C9111978C0D9D1D8D939C93B2
:1015D0003170232B69F480E090E040E050E060E05F
:1015E00070E00E942001882369F48A818F7B8A83BE
:1015F0008C0C9D1CAC18BD08A114B10409F03ECFA1
:1016000080E002C01A8281E0DF91CF911F910F919B
:10161000FF90EF90DF90CF90BF90AF909F908F9012
:101620007F906F905F904F9008956F927F928F920E
:101630009F92AF92BF92CF92DF92EF92FF920F9361
:101640001F93DF93CF93CDB7DEB7A4970FB6F8946F
:10165000DEBF0FBECDBF5C011092C4011092C3016A
:10166000009709F4EDC00E949F0180FF02C082E054
:10167000ECC04E010894811C911CC40140E050E074
:1016800060E070E00E948709813021F0CC24DD24E5
:1016900076011BC0C40140E050E060E070E02EEB3A
:1016A00031E000E110E00E94B900882309F0CAC0CF
:1016B0008D81882309F4C8C0C984DA84EB84FC8452
:1016C000C401B701A6010E948709833009F4BAC09A
:1016D000882309F0B9C0CE010196B701A6012DE01B
:1016E00030E004E210E00E94B900882309F0AAC0AB
:1016F0008A859B85BC0180E090E0611571058105BC
:10170000910521F4688D798D8A8D9B8D2C8130E037
:1017100040E050E00E944E183B014C018A819B81C1
:10172000A0E0B0E0C80ED91EEA1EFB1EF501C4867B
:10173000D586E686F786898181832D813E81358332
:1017400024838F8198857C0100E010E0E114F1048E
:101750000105110521F4EC88FD880E891F898A8115
:101760009B81A0E0B0E0E81AF90A0A0B1B0BE6180F
:10177000F7080809190984E0369527958A95E1F755
:10178000C901A0E0B0E0E81AF90A0A0B1B0BF50149
:10179000218130E040E050E0C801B7010E948D187F
:1017A0002E5F3F4F4F4F5F4FF501208731874287B4
:1017B0005387273FFFE03F07F0E04F07F0E05F0768
:1017C00010F481E008C0275F3F4F4040504010F0C8
:1017D00083E001C082E0F5018083833029F488A191
:1017E00099A1AAA1BBA109C0F50184859585A6850B
:1017F000B785860D971DA81DB91D808B918BA28B77
:10180000B38BF5018481958114E0969587951A959F
:10181000E1F7A0E0B0E02485358546855785820F45
:10182000931FA41FB51F860D971DA81DB91D848B7E
:10183000958BA68BB78B1282B092C401A092C30184
:1018400080E003C081E001C087E0A4960FB6F89461
:10185000DEBF0FBECDBFCF91DF911F910F91FF90E3
:10186000EF90DF90CF90BF90AF909F908F907F9040
:101870006F9008959093C5008093C400E1ECF0E070
:1018800088E1808386E88093C200529A5A9A8081C8
:10189000886D808308951F920F920FB60F921124C6
:1018A0005A980F900FBE0F901F901895282F909167
:1018B000CB019F5F9F708091CC019817E1F3E92FD6
:1018C000F0E0E353FE4F20839093CB018091C10061
:1018D00080628093C1000895CF93DF93EC0102C032
:1018E0000E94560C89918823D9F7DF91CF910895F2
:1018F0001F920F920FB60F9211248F939F93EF9325
:10190000FF939091CB018091CC01981779F0809151
:10191000CC018F5F8F708093CC01E091CC01F0E01F
:10192000E353FE4F80818093C60005C08091C100C3
:101930008F7D8093C100FF91EF919F918F910F90C8
:101940000FBE0F901F9018959091DD018091DE01E0
:10195000981711F480E008958091DE018F5F8F71F8
:101960008093DE01E091DE01F0E0E152FE4F8081E4
:1019700008951F920F920FB60F9211248F939F9389
:10198000EF93FF939091C600E091DD01EF5FEF715F
:101990008091DE01E81731F0E093DD01F0E0E152E3
:1019A000FE4F9083FF91EF919F918F910F900FBE0B
:1019B0000F901F9018950F931F93DF93CF93CDB780
:1019C000DEB761970FB6F894DEBF0FBECDBFAB0197
:1019D0008E010F5F1F4FB8010E94AF18C8010E940F
:1019E0006C0C61960FB6F894DEBF0FBECDBFCF91E1
:1019F000DF911F910F910895BC0180EE9EE20E943D
:101A00007918603130F0862F90E040979595879552
:101A1000682F6093B800089584EA8093BC00809199
:101A2000BC0087FFFCCF089584E98093BC008091BF
:101A3000BC0084FDFCCF08958093BB0084E88093B4
:101A4000BC008091BC0087FFFCCF08958295880F71
:101A5000880F807C84688093BC008091BC0087FFE5
:101A6000FCCF8091BB000895982FF90184EA809300
:101A7000BC008091BC0087FFFCCF9093BB0084E842
:101A80008093BC008091BC0087FFFCCF6093BB00BB
:101A900084E88093BC008091BC0087FFFCCF0CC021
:101AA00080818093BB009093BC008091BC0087FF35
:101AB000FCCF3196415001C094E8442389F784E972
:101AC0008093BC008091BC0084FDFCCF0895982FCA
:101AD000F90184EA8093BC008091BC0087FFFCCFB1
:101AE0009093BB0084E88093BC008091BC0087FF8A
:101AF000FCCF6093BB0084E88093BC008091BC0065
:101B000087FFFCCF84EA8093BC008091BC0087FFF4
:101B1000FCCF9F5F9093BB0084E88093BC008091D2
:101B2000BC0087FFFCCF15C0415080E090E011F071
:101B300081E090E036E0880F991F3A95E1F78468DC
:101B40008093BC008091BC0087FFFCCF8091BB00DC
:101B50008193442349F784E98093BC008091BC00C1
:101B600084FDFCCF0895FC0182810895FC018181F0
:101B700008950895482F6AE00E946D18282F30E0DC
:101B800084E0220F331F8A95E1F7842F0E946D189D
:101B9000892F822B0895282F22952F709AE0299F54
:101BA000900111248F70820F0895EF92FF920F938E
:101BB0001F93DF93CF93CDB7DEB727970FB6F89477
:101BC000DEBF0FBECDBF7C0180ED60E047E08E013F
:101BD0000F5F1F4F98010E94670D40E050E0B80171
:101BE0003AE0FB01E40FF51F2081F701E40FF51F38
:101BF000822F82958F70839FC00111242F70280F30
:101C000020834F5F5F4F4730510559F727960FB636
:101C1000F894DEBF0FBECDBFCF91DF911F910F9122
:101C2000FF90EF900895EF92FF920F931F93DF9331
:101C3000CF9300D0CDB7DEB77C0180ED61E142E00B
:101C40008E010F5F1F4F98010E94670D8981F70178
:101C5000808380ED6EE041E098010E94670D8981EC
:101C60008062898380ED6EE041E098010E94340D2E
:101C70000F900F90CF91DF911F910F91FF90EF90F8
:101C800008950F931F93DF93CF9300D000D0CDB76B
:101C9000DEB7082F162F842F29830E94BA0D8A835E
:101CA000812F0E94BA0D8B83802F0E94BA0D8C83E6
:101CB00080ED63E044E09E012F5F3F4F0E94340DB2
:101CC0000F900F900F900F90CF91DF911F910F9178
:101CD00008950F931F93DF93CF9300D00F92CDB74A
:101CE000DEB7082F162F842F0E94BA0D8983812F0B
:101CF0000E94BA0D8A83802F0E94BA0D8B8380EDDB
:101D000060E043E09E012F5F3F4F0E94340D0F9033
:101D10000F900F90CF91DF911F910F910895DF9356
:101D2000CF930F92CDB7DEB7198280ED6EE041E020
:101D30009E012F5F3F4F0E94340D0F90CF91DF9196
:101D40000895EF92FF920F931F938C01FC01848101
:101D500090E06AE070E00E94DB0C90E0E92E91E0F8
:101D6000F92EC7010E946C0CF801858190E06AE0B1
:101D700070E00E94DB0CC7010E946C0CF8018681A8
:101D800090E06AE070E00E94DB0C82E091E00E944B
:101D90006C0CF801838190E06AE070E00E94DB0C3B
:101DA0008DE00E94560C8AE00E94560C1F910F9104
:101DB000FF90EF900895EF92FF920F931F938C0185
:101DC000FC01828190E06AE070E00E94DB0C24E07C
:101DD000E22E21E0F22EC7010E946C0CF8018181F5
:101DE00090E06AE070E00E94DB0CC7010E946C0C7E
:101DF000F801808190E06AE070E00E94DB0C8DE0E9
:101E00000E94560C8AE00E94560C1F910F91FF9081
:101E1000EF9008959091100280E020910E02309191
:101E20000F02822B932B90930802809307029091CC
:101E3000140280E02091120230911302822B932B26
:101E400090930D0280930C029091180280E02091F3
:101E5000160230911702822B932B90930B028093E2
:101E60000A02089580910902853E21F486E091E0FE
:101E70000E946C0C88E893E12CE231E0F901319783
:101E8000F1F70197D9F708958EE091E00E946C0C6C
:101E900080910702909108026AE070E00E94DB0CDA
:101EA00081E191E00E946C0C80910C0290910D02F6
:101EB0006AE070E00E94DB0C85E191E00E946C0C0E
:101EC00080910A0290910B026AE070E00E94DB0CA4
:101ED0008DE00E94560C8AE00E94560C0895FF92F5
:101EE0000F931F93CF93DF93082F162FF42EE90142
:101EF0000E940C0D802F0E941C0D812F0E941C0D32
:101F00000E940C0D802F8F5F0E941C0D09C0FA9457
:101F100080E009F081E00E94260D888319822296D4
:101F2000FF20A9F70E94140DDF91CF911F910F910F
:101F3000FF900895439A86EA62E346E02EE032E09D
:101F40000E946F0F43980E940A0F0895FF920F930B
:101F50001F93CF93DF93082F162FF42EE9010E94D1
:101F60000C0D802F0E941C0D812F0E941C0D0E94C1
:101F70000C0D802F8F5F0E941C0D07C0FA9480E02B
:101F800009F081E00E94260D8993FF20B9F70E9495
:101F9000140DDF91CF911F910F91FF9008950E9432
:101FA0000C0D86EA0E941C0D8DE20E941C0D88E03B
:101FB0000E941C0D0E94140D08950E940C0D86EACB
:101FC0000E941C0D8DE20E941C0D80E10E941C0DE0
:101FD0000E94140D08950E940C0D86EA0E941C0DAB
:101FE0008DE20E941C0D80E00E941C0D0E94140DC9
:101FF00008950E94EB0F0E94DD0F0E94CF0F86EA2A
:1020000060E041E029E032E00E94A60F08951F92AF
:102010000F920FB60F9211248F939F9380915907BF
:1020200090915A07982F882339F09150892F90E08A
:1020300090935A078093590780914B0390914C03DA
:10204000982F882339F09150892F90E090934C037A
:1020500080934B0380911A0290911B02982F882342
:1020600039F09150892F90E090931B0280931A02CF
:102070008091320290913302982F882339F0915049
:10208000892F90E090933302809332028091580719
:10209000882319F08150809358079F918F910F905A
:1020A0000FBE0F901F90189508950895AF92BF929C
:1020B000CF92DF92EF92FF920F931F93CF93DF9314
:1020C000EC01FB01B701D60165010115110511F401
:1020D00004E110E06115710511F466E970E0222356
:1020E000C1F08081842319F040E050E008C0808175
:1020F00090E0822309F491E081E09827492F8881BC
:10210000882309F467C08081822309F063C01882A4
:1021100061C08081FF24842351F4FF24F3948881DB
:10212000882329F481E088838FE090E012C08881C1
:10213000882309F448C0FF2089F08130C9F48091D8
:10214000590790915A07892BF1F582E0888385E041
:1021500090E090935A078093590735C0823098F1E8
:10216000843088F5109711F0FD01099518822BC075
:10217000823069F48091590790915A07892B19F59B
:1021800083E0888370935A07609359071CC083309B
:1021900049F48091590790915A07892BA1F484E062
:1021A000888311C0843079F48091590790915A073F
:1021B000892B49F410935A0700935907C114D1048D
:1021C00011F0F60109958881833048F0FF2039F439
:1021D000188205C0F42E442309F4A9CFA0CFDF91C3
:1021E000CF911F910F91FF90EF90DF90CF90BF9014
:1021F000AF9008951F920F920FB60F9211242F9354
:102200003F938F939F93EF93FF938091340220919C
:10221000C7013091C801F82FFF0FE0E0E20FF31F74
:10222000E35BFC4F80818093C6012F5F3F4F30936B
:10223000C8012093C70190E09093890080938800A3
:102240002050324060F01092C8011092C70191E016
:102250009093480380913402892780933402FF9140
:10226000EF919F918F913F912F910F900FBE0F9003
:102270001F90189590917C00987F982B90937C00EC
:1022800080917A00806480937A0080917A0086FD44
:10229000FCCF2091780030917900C9010895EF9228
:1022A000FF920F931F938091320290913302892BFA
:1022B00011F02BE0A2C087E00E943A11A0E0B0E04C
:1022C000BC01CD0126E530E040E050E00E944E1810
:1022D00024E630E040E050E00E948D1879018A0148
:1022E0008AE00E94560C82EAE81681E0F80680E057
:1022F000080780E0180710F420E007C088EB9BE097
:1023000090933302809332022BE0D801C7018059A9
:102310009140A040B0404297A105B10508F42AE0E1
:10232000D801C7018B589140A040B0400597A10546
:10233000B10508F429E0D801C70186589140A040B2
:10234000B0400597A105B10508F428E0D801C70100
:102350008C579140A040B0400A97A105B10508F400
:1023600027E0D801C70189579140A040B0400397AA
:10237000A105B10508F426E0D801C70184579140B2
:10238000A040B0400597A105B10508F425E0D801AB
:10239000C70180579140A040B0400497A105B10506
:1023A00008F424E0D801C7018D569140A040B04008
:1023B0000397A105B10508F423E0D801C7018856A9
:1023C0009140A040B0400597A105B10508F422E076
:1023D000D801C70188559140A040B0404097A10561
:1023E000B10508F421E088E5E81681E0F80680E010
:1023F000080780E0180708F420E0822F1F910F9152
:10240000FF90EF900895CF92DF92EF92FF920F939B
:102410001F9307E312E0109237022DB73EB7285002
:1024200030400FB6F8943EBF0FBE2DBFEDB7FEB7DC
:102430003196ADB7BEB712961C930E93119728E64E
:1024400030E03383228395838483778366830E947D
:102450002B182DB73EB7285F3F4F0FB6F8943EBFFD
:102460000FBE2DBFC8010E941708D82E882309F07F
:1024700002C18DE493E06CE070E045E352E00E941D
:102480007E08882331F091E0E92EF12C012D112DE9
:1024900095C080913502909136020C9709F0F4C0F6
:1024A0008091550390915603A0915703B091580322
:1024B00087559144A645B54409F0E6C083E4C82E8B
:1024C0008DE493E068E070E045E352E00E947E080E
:1024D0008091350290913602089709F0D5C0E090BE
:1024E0005103F090520300915303109154038091D3
:1024F0004D0390914E03A0914F03B09150038C3443
:1025000029E4920723E5A20724E5B20709F43EC0B7
:102510008D3439E4930733E5A30734E5B30738F482
:1025200086569D46A447B04209F0AEC00FC084361F
:1025300031E6930734E7A30731E6B307C1F18656C6
:102540009146A346B44709F09FC020C0D801C701F7
:102550004097A109B10985359105A105B10508F09C
:1025600093C08DE493E0B70145E352E00E947E08FA
:102570008091350290913602A0E0B0E08E159F0563
:10258000A007B10709F080C0C7BC9ACF809173073C
:1025900090917407A0917507B0917607E80EF91E27
:1025A0000A1F1B1FC801B7010E949F0489CF3FEF7C
:1025B000E316F1040105110509F010F4C7015DC02F
:1025C00060E070E080E090E00E949F048DE493E082
:1025D00060E072E045E352E00E947E088DE495E001
:1025E00060E072E045E352E00E947E0880914D0772
:1025F00080FD03C085B5826002C085B5836085BD5E
:1026000080918100816080938100219AFF24F3945E
:10261000809148038823E1F3809134028F25182F9D
:10262000110F00E0C801835B9C4F60E072E045E35E
:1026300052E00E947E0880913502909136028050CF
:10264000924018F010924803E3CF219880E890E080
:102650009093890080938800809181008E7F809381
:10266000810080914D0780FD03C085B58D7F02C03C
:1026700085B58C7F85BD8D2D90E01F910F91FF90CA
:10268000EF90DF90CF900895EE24FF24870196CF3E
:102690000F931F930E944F11282F8B3058F500D0B5
:1026A00000D000D0EDB7FEB7319601E517E0ADB729
:1026B000BEB712961C930E93119789E191E0938314
:1026C0008283248315820E94D0188DB79EB7069608
:1026D0000FB6F8949EBF0FBE8DBFC8010E946C0C50
:1026E0008DE00E94560C8AE00E94560C81E291E037
:1026F000B80104C085E291E069E271E00E94031232
:102700001F910F9108950F931F938091C501813000
:1027100091F1813020F0823009F087C058C00E94CA
:102720004F1180934A038B3019F48AE080934A0357
:1027300000D000D000D0EDB7FEB7319601E517E02C
:10274000ADB7BEB712961C930E93119789E191E035
:102750009383828380914A03848315820E94D018D8
:102760008DB79EB706960FB6F8949EBF0FBE8DBF6D
:1027700081E291E057C080914703882311F0815096
:1027800001C087E18093470300D000D000D0EDB7AF
:10279000FEB7319601E517E0ADB7BEB712961C93B0
:1027A0000E93119785E391E0938382838091470391
:1027B000848315820E94D0188DB79EB706960FB6F7
:1027C000F8949EBF0FBE8DBF8EE391E02BC0809129
:1027D0004903882311F0815001C08BE380934903A2
:1027E00000D000D000D0EDB7FEB7319601E517E07C
:1027F000ADB7BEB712961C930E93119785E391E087
:102800009383828380914903848315820E94D01828
:102810008DB79EB706960FB6F8949EBF0FBE8DBFBC
:1028200083E491E0B8010E9403121F910F91089573
:102830000F931F938091C501813021F0823009F000
:1028400045C035C082E08093C50185E291E067E430
:1028500071E00E94031280E092E00E94D50D80E0BA
:1028600092E00E94B60D8093490300D000D000D0C2
:10287000EDB7FEB7319601E517E0ADB7BEB71296DA
:102880001C930E93119725E331E0338322838483D5
:1028900015820E94D0188DB79EB706960FB6F89491
:1028A0009EBF0FBE8DBF83E491E0B8010DC01092B2
:1028B000C501809147036091490340E00E94690E81
:1028C00085E291E06EE471E00E9403121F910F9186
:1028D00008950F931F938091C5018130D1F181300C
:1028E00020F0823009F072C069C081E08093C50198
:1028F00085E291E06FE571E00E94031280E092E0D2
:102900000E94D50D80E092E00E94B30D80934703B2
:1029100000D000D000D0EDB7FEB7319601E517E04A
:10292000ADB7BEB712961C930E93119725E331E015
:1029300033832283848315820E94D0188DB79EB77B
:1029400006960FB6F8949EBF0FBE8DBF8EE391E042
:1029500033C082E08093C50185E291E06BE671E0CF
:102960000E94031280E092E00E94D50D80E092E088
:102970000E94B60D8093490300D000D000D0EDB77F
:10298000FEB7319601E517E0ADB7BEB712961C93BE
:102990000E93119725E331E03383228384831582DC
:1029A0000E94D0188DB79EB706960FB6F8949EBFBA
:1029B0000FBE8DBF83E491E0B80106C01092C5013F
:1029C00085E291E066E771E00E9403121F910F918A
:1029D0000895EF92FF920F931F938091C50181306C
:1029E00009F44CC0813020F0823009F0A3C073C0DC
:1029F00080E092E00E94D50D8EE391E06FE771E0F8
:102A00000E94031280E092E00E94B30D00D000D03B
:102A100000D0EDB7FEB7319601E517E0ADB7BEB710
:102A200012961C930E93119725E3E22E21E0F22ECD
:102A3000F382E282848315820E94D0188DB79EB7FC
:102A400006960FB6F8949EBF0FBE8DBF8EE391E041
:102A5000B8010E94031280E092E00E94B60D00D0FF
:102A600000D000D0EDB7FEB73196ADB7BEB7129625
:102A70001C930E931197F382E2824BC0809147031F
:102A8000873120F48F5F8093470302C01092470381
:102A900000D000D000D0EDB7FEB7319601E517E0C9
:102AA000ADB7BEB712961C930E93119785E391E0D4
:102AB0009383828380914703848315820E94D01878
:102AC0008DB79EB706960FB6F8949EBF0FBE8DBF0A
:102AD0008EE391E02CC0809149038B3320F48F5F0B
:102AE0008093490302C01092490300D000D000D067
:102AF000EDB7FEB7319601E517E0ADB7BEB7129658
:102B00001C930E93119785E391E0938382838091C8
:102B10004903848315820E94D0188DB79EB706960C
:102B20000FB6F8949EBF0FBE8DBF83E491E0B8014D
:102B30000E9403121F910F91FF90EF9008952F9222
:102B40003F924F925F926F927F928F929F92AF923D
:102B5000BF92CF92DF92EF92FF920F931F93DF937A
:102B6000CF9300D00F92CDB7DEB78DE490E00E94F6
:102B70003A0C80917C00806C80937C0087E8809385
:102B80007A0082E084BD80936E0081E880938000AB
:102B90008091B00082608093B0008091B100876026
:102BA0008093B10085E78093B300809170008260CC
:102BB0008093700078940E948F0E8DE06FE140E06A
:102BC0000E94690E80E162E049E126E00E94410E28
:102BD00084E690E00E94FC0C3B9A439A0E94F90F15
:102BE0002A9A84B1886284B9579A5F9A229A2A9A5B
:102BF0008CB580658CBD8DB581608DBD209A289A7D
:102C00005E9A0E949F018BE597E00E94150B8DE074
:102C10000E94560C8AE00E94560C8BE891E00E94BC
:102C20006C0C8DE00E94560C8AE00E94560C389A7B
:102C30008BB180638BB9419A19821A821B822898C2
:102C40002224332488249924662477244424552478
:102C5000CE01019669E270E040E120E204E610E076
:102C600032E3E32EF12CB3E8CB2EB3E1DB2EA8E167
:102C7000AA2EA4E1BA2E0E945610CE01029669E255
:102C800070E040E220E1F9EECF2EF4E1DF2EE9E63C
:102C9000AE2EE4E1BE2E0E945610CE01039669E2EC
:102CA00070E040E320E054E5C52E50E1D52E35E537
:102CB000A32E30E1B32E0E94561080914B039091C9
:102CC0004C03892B09F09FC084E690E090934C035D
:102CD00080934B030E949A0F8114910491F4611424
:102CE000710479F44114510461F4809007029090CA
:102CF000080260900C0270900D0240900A02509001
:102D00000B02809107029091080244978816990659
:102D100044F1809107029091080244968815990524
:102D200004F180910C0290910D0244976816790687
:102D3000C4F080910C0290910D024496861597057F
:102D400084F080910A0290910B024497481659062C
:102D500044F080910A0290910B02449684159505E7
:102D600044F480915807882321F4332011F00E9405
:102D70004813809007029090080260900C027090B7
:102D80000D0240900A0250900B0280910C0290912B
:102D90000D0240910C0250910D026091070270915A
:102DA000080220E08D599F4F0CF021E080E044366E
:102DB00051050CF481E0282B822F90E020E030E0D8
:102DC0006C597F4F14F421E030E082239323892B48
:102DD000D1F0222091F0409A10921B0210921A0218
:102DE00081E991E00E946C0C8DE00E94560C8AE013
:102DF0000E94560C4098222406C082E390E09093F3
:102E00001B0280931A0280911A0290911B02892B57
:102E100011F4222426C080910C0290910D02409161
:102E20000C0250910D02609107027091080220E09F
:102E30008D599F4F0CF021E080E0443651050CF491
:102E400081E0282B822F90E020E030E06F3B71057D
:102E500014F021E030E082239323892B11F0222407
:102E6000239480915807882329F4319903C044E1C1
:102E700040935807809158078130B1F4319914C0BC
:102E8000332081F486E991E00E946C0C8DE00E9471
:102E9000560C8AE00E94560C85E291E06FE971E0E1
:102EA0000E94031233243394319BD2CE8091580771
:102EB000882309F0CDCE332009F4CACE8BEA91E005
:102EC0000E946C0C8DE00E94560C8AE00E94560C09
:102ED00085E291E063EB71E00E940312409884E187
:102EE000809358073324B4CE8A3019F48DE001D092
:102EF0008AE0FF93EF93E091C901F091CA01309706
:102F000009F00995EF91FF910895FC0185918030BA
:102F100011F0EADFFBCF0895FF27E0E230E247FF40
:102F20000CC0419597FF09C0EDE2609570958095C2
:102F30009095611D711D811D911D27FF02C0219576
:102F400030E350E2AA27660F771F881F991FAA1F38
:102F5000A41710F0A41B63955A95A9F7AA3008F09E
:102F6000A95FA05DAF93F39561157105810591058A
:102F700041F7ED3211F4EF93F395F21718F43F9304
:102F8000F395FBCF8F91B0DFFA95E1F70895E991C2
:102F9000F9918591803021F0853219F0A5DFF9CFC4
:102FA000089520E0E89455915532C1F3503311F45F
:102FB000689455915A3348F4505390F3220F022EDF
:102FC000220F220F200D250FF4CF0EF421958991A9
:102FD0009991533619F3533729F1533559F1BC01FF
:102FE00088279927E8945C3621F48991999168940F
:102FF0005591543639F446EF7EF077FF0DC08FEFD0
:103000009FEF0AC055374AE039F0583540E121F0CA
:10301000523642E009F00895FF93EF937DDFEF9180
:10302000FF91B7CFFF93EF93FC0181918030B9F30B
:103030005BDFFBCFFF93EF9368DFF1CFDF93CF939D
:10304000CDB7DEB72596A3DFCF91DF910895F701C5
:1030500081937F010895DF93CF93CDB7DEB7259697
:10306000E091C901F091CA01EF93FF93E7E2F8E123
:10307000E093C901F093CA01FF92EF92E990F990B1
:1030800086DFF7011082EF90FF90FF91EF91E093C0
:10309000C901F093CA01CF91DF910895629FD001D9
:1030A000739FF001829FE00DF11D649FE00DF11D03
:1030B000929FF00D839FF00D749FF00D659FF00DB2
:1030C0009927729FB00DE11DF91F639FB00DE11D9F
:1030D000F91FBD01CF0111240895991B79E004C0A7
:1030E000991F961708F0961B881F7A95C9F7809547
:1030F0000895AA1BBB1B51E107C0AA1FBB1FA6173F
:10310000B70710F0A61BB70B881F991F5A95A9F790
:1031100080959095BC01CD010895A1E21A2EAA1BBD
:10312000BB1BFD010DC0AA1FBB1FEE1FFF1FA21777
:10313000B307E407F50720F0A21BB30BE40BF50B74
:10314000661F771F881F991F1A9469F760957095FD
:10315000809590959B01AC01BD01CF010895FB01C5
:103160009F01E8944230C4F04532B4F44A3029F467
:1031700097FB1EF4909581959F4F642F77270E94AF
:103180007918805D8A330CF0895D8193CB010097BB
:10319000A1F716F45DE251931082C9010C94E71A6D
:1031A000AEE0B0E0E6EDF8E10C948F1B0D891E89CE
:1031B00086E08C831A8309838FEF9FE79E838D833C
:1031C0009E01275E3F4FCE0101966F89788DA90140
:1031D0000E94F4182F813885020F131FF801108206
:1031E0002E96E4E00C94AB1BABE0B0E0EAEFF8E124
:1031F0000C94811B3C012B015A01FC0117821682A1
:10320000838181FD03C06FEF7FEFC6C19AE0892EF5
:103210001E010894211C311CF3012381F20123FDBE
:10322000859123FF81912F01882309F4B2C1853252
:1032300039F423FD859123FF81912F01853229F4F3
:1032400090E0B3010E94F71AE7CF982FFF24EE24F5
:103250009924FFE1FF15D0F09B3269F09C3228F4ED
:10326000903259F0933291F40EC09D3249F0903370
:1032700069F441E024C052E0F52A84E0F82A28C02D
:1032800098E0F92A25C0E0E1FE2A22C0F7FC29C017
:10329000892F80538A3070F4F6FE05C0989C902CDC
:1032A0001124980E15C0E89CE02C1124E80EF0E2E1
:1032B000FF2A0EC09E3229F4F6FC6BC140E4F42ACA
:1032C00007C09C3619F450E8F52A02C0983649F434
:1032D000F20123FD959123FF91912F01992309F08C
:1032E000B8CF892F8554833018F08052833038F45A
:1032F00044E050E0A40EB51E5FE359830FC093363F
:1033000031F0933779F0933509F056C020C0F501BC
:103310008081898342E050E0A40EB51E610101E086
:1033200010E012C0F501C080D180F6FC03C06FEF41
:103330007FEF02C0692D70E042E050E0A40EB51EA0
:10334000C6010E94DC1A8C015FE7F52214C0F5016A
:10335000C080D180F6FC03C06FEF7FEF02C0692D03
:1033600070E042E050E0A40EB51EC6010E94D11AE2
:103370008C0150E8F52AF3FE07C01AC080E290E005
:10338000B3010E94F71AEA948E2D90E008171907EE
:10339000A8F30EC0F601F7FC8591F7FE81916F014D
:1033A00090E0B3010E94F71AE110EA940150104036
:1033B0000115110579F7EAC0943611F0993669F5CF
:1033C000F7FE08C0F501208131814281538184E0FC
:1033D00090E00AC0F501808191819C01442737FD6E
:1033E0004095542F82E090E0A80EB91E9FE6F92286
:1033F00057FF09C050954095309521953F4F4F4F4D
:103400005F4FE0E8FE2ACA01B901A1012AE030E0DD
:103410000E94231BD82ED21840C0953729F41F2DA7
:103420001F7E2AE030E01DC01F2D197F9F3661F0FE
:10343000903720F4983509F0ACC00FC0903739F0C0
:10344000983709F0A6C004C028E030E00AC0106137
:1034500014FD146020E130E004C014FD166020E18A
:1034600032E017FF08C0F50160817181828193818C
:1034700044E050E008C0F50180819181BC0180E00A
:1034800090E042E050E0A40EB51EA1010E94231B73
:10349000D82ED2188FE7F82EF122F6FE0BC05EEF81
:1034A000F522D91438F4F4FE07C0F2FC05C08FEE03
:1034B000F82202C01D2D01C0192DF4FE0DC0FE0121
:1034C000ED0DF11D8081803319F499EEF92208C0C9
:1034D0001F5FF2FE05C003C08F2D867809F01F5FC5
:1034E0000F2DF3FC14C0F0FE0FC01E1510F09D2C24
:1034F0000BC09D2C9E0C911A1E2D06C080E290E000
:10350000B3010E94F71A1F5F1E15C0F304C01E15F9
:1035100010F4E11A01C0EE2404FF0FC080E390E034
:10352000B3010E94F71A02FF1DC001FD03C088E726
:1035300090E00EC088E590E00BC0802F867891F077
:1035400001FF02C08BE201C080E2F7FC8DE290E057
:10355000B3010E94F71A06C080E390E0B3010E9415
:10356000F71A9A94D914C0F3DA94F101ED0DF11D14
:10357000808190E0B3010E94F71ADD20A9F706C010
:1035800080E290E0B3010E94F71AEA94EE20C1F7BE
:1035900043CEF30166817781CB012B96E2E10C9457
:1035A0009D1BFC010590615070400110D8F780957B
:1035B00090958E0F9F1F0895FC01615070400190FF
:1035C0000110D8F7809590958E0F9F1F0895DC010C
:1035D000FC01672F71917723E1F7329704C07C914A
:1035E0006D9370836291AE17BF07C8F308950F9370
:1035F0001F93CF93DF938C01EB018B8181FF1BC065
:1036000082FF0DC02E813F818C819D812817390753
:1036100064F4E881F9810193F983E88306C0E885C1
:10362000F985802F0995892B31F48E819F81019630
:103630009F838E8302C00FEF1FEFC801DF91CF91F0
:103640001F910F910895FA01AA27283051F12031D6
:1036500081F1E8946F936E7F6E5F7F4F8F4F9F4F26
:10366000AF4FB1E03ED0B4E03CD0670F781F891F68
:103670009A1FA11D680F791F8A1F911DA11D6A0F36
:10368000711D811D911DA11D20D009F468943F91E9
:103690002AE0269F11243019305D3193DEF6CF01E8
:1036A0000895462F4770405D4193B3E00FD0C9F7AE
:1036B000F6CF462F4F70405D4A3318F0495D31FD1B
:1036C0004052419302D0A9F7EACFB4E0A69597956E
:1036D000879577956795BA95C9F700976105710544
:1036E00008959B01AC010A2E06945795479537958E
:1036F0002795BA95C9F7620F731F841F951FA01DE8
:1037000008952F923F924F925F926F927F928F9285
:103710009F92AF92BF92CF92DF92EF92FF920F9360
:103720001F93CF93DF93CDB7DEB7CA1BDB0B0FB66A
:10373000F894DEBF0FBECDBF09942A883988488827
:103740005F846E847D848C849B84AA84B984C884BD
:10375000DF80EE80FD800C811B81AA81B981CE0FB4
:10376000D11D0FB6F894DEBF0FBECDBFED01089599
:04377000F894FFCFFB
:103774002E0020003A004144584C204F4B00583D45
:103784000020593D00205A3D002564302E77617693
:1037940000616B7500706F7A006C61645F7A616BB5
:1037A4002E77617600253032642E77617600676F5C
:1037B400647A006D696E007A6D5F6D696E006E6F7C
:1037C400775F637A61735F7573742E776176007ABD
:1037D4006D5F676F647A2E776176007A6D5F6D69CD
:1037E4006E2E776176006E6F77792E77617600673B
:1037F4006F647A696E612E77617600535441525436
:1038040000504C4159006C616420706F646C006C12
:1038140061645F706F642E776176006C6164206F01
:10382400646C006C61645F6F646C2E776176000079
:00000001FF
