:100000000C9434000C9451000C9451000C94510049
:100010000C9451000C9451000C9451000C9451001C
:100020000C9451000C9451000C9451000C9451000C
:100030000C9451000C9451000C9451000C945100FC
:100040000C9451000C9451000C94D2000C9491002B
:100050000C9464000C9451000C9451000C945100C9
:100060000C9451000C94510011241FBECFEFD8E026
:10007000DEBFCDBF11E0A0E0B1E0E8E8F6E002C0ED
:1000800005900D92AA31B107D9F711E0AAE1B1E0CC
:1000900001C01D92A136B107E1F70E94C7020C947E
:1000A00042030C9400009093C5008093C400E1ECDF
:1000B000F0E088E1808386E88093C200529A5A9AE1
:1000C0008081886D808308951F920F920FB60F92E2
:1000D00011245A980F900FBE0F901F901895282F3B
:1000E00090911A019F5F9F7080911B019817E1F317
:1000F000E92FF0E0E45EFE4F208390931A01809197
:10010000C10080628093C1000895CF93DF93EC011A
:1001100002C00E946F0089918823D9F7DF91CF91A7
:1001200008951F920F920FB60F9211248F939F93F1
:10013000EF93FF9390911A0180911B01981779F02A
:1001400080911B018F5F8F7080931B01E0911B01D9
:10015000F0E0E45EFE4F80818093C60005C0809190
:10016000C1008F7D8093C100FF91EF919F918F918E
:100170000F900FBE0F901F90189590912C018091B9
:100180002D01981711F480E0089580912D018F5F63
:100190008F7180932D01E0912D01F0E0E25DFE4F23
:1001A000808108951F920F920FB60F9211248F93A2
:1001B0009F93EF93FF939091C600E0912C01EF5F26
:1001C000EF7180912D01E81731F0E0932C01F0E000
:1001D000E25DFE4F9083FF91EF919F918F910F9081
:1001E0000FBE0F901F9018950F931F93DF93CF931F
:1001F000CDB7DEB761970FB6F894DEBF0FBECDBFA7
:10020000AB018E010F5F1F4FB8010E941103C8019F
:100210000E94850061960FB6F894DEBF0FBECDBF79
:10022000CF91DF911F910F910895BC0180EE9EE266
:100230000E94FD02603130F0862F90E04097959546
:100240008795682F6093B800089584EA8093BC0076
:100250008091BC0087FFFCCF089584E98093BC00A7
:100260008091BC0084FDFCCF08958093BB0084E89E
:100270008093BC008091BC0087FFFCCF08958295DD
:10028000880F880F807C84688093BC008091BC00BC
:1002900087FFFCCF8091BB000895982FF90184EA75
:1002A0008093BC008091BC0087FFFCCF9093BB0083
:1002B00084E88093BC008091BC0087FFFCCF6093F2
:1002C000BB0084E88093BC008091BC0087FFFCCF1A
:1002D0000CC080818093BB009093BC008091BC00D7
:1002E00087FFFCCF3196415001C094E8442389F741
:1002F00084E98093BC008091BC0084FDFCCF08950C
:10030000982FF90184EA8093BC008091BC0087FF9C
:10031000FCCF9093BB0084E88093BC008091BC002C
:1003200087FFFCCF6093BB0084E88093BC00809182
:10033000BC0087FFFCCF84EA8093BC008091BC00A6
:1003400087FFFCCF9F5F9093BB0084E88093BC0045
:100350008091BC0087FFFCCF15C0415080E090E049
:1003600011F081E090E036E0880F991F3A95E1F7AF
:1003700084688093BC008091BC0087FFFCCF809193
:10038000BB008193442349F784E98093BC008091AA
:10039000BC0084FDFCCF08959091570180E020912E
:1003A000550130915601822B932B90934F018093EE
:1003B0004E0190915B0180E02091590130915A01EA
:1003C000822B932B909354018093530190915F0162
:1003D00080E020915D0130915E01822B932B909300
:1003E000520180935101089580915001853E21F47E
:1003F00080E091E00E94850080E29EE42CE231E002
:10040000F9013197F1F70197D9F708950E94CC01CE
:1004100088E091E00E94850080914E0190914F010B
:100420006AE070E00E94F4008BE091E00E94850099
:1004300080915301909154016AE070E00E94F400B1
:100440008FE091E00E9485008091510190915201CE
:100450006AE070E00E94F4008DE00E946F008AE084
:100460000E946F000895FF920F931F93CF93DF9325
:10047000082F162FF42EE9010E942501802F0E94DB
:100480003501812F0E9435010E942501802F8F5F49
:100490000E94350109C0FA9480E009F081E00E94D1
:1004A0003F01888319822296FF20A9F70E942D011F
:1004B000DF91CF911F910F91FF90089586EA62E33B
:1004C00046E025E531E00E9433020895FF920F9344
:1004D0001F93CF93DF93082F162FF42EE9010E946C
:1004E0002501802F0E943501812F0E9435010E9435
:1004F0002501802F8F5F0E94350107C0FA9480E0AC
:1005000009F081E00E943F018993FF20B9F70E9422
:100510002D01DF91CF911F910F91FF9008950E94BF
:10052000250186EA0E9435018DE20E94350188E0AE
:100530000E9435010E942D0108950E94250186EA3E
:100540000E9435018DE20E94350180E10E94350153
:100550000E942D0108950E94250186EA0E9435011E
:100560008DE20E94350180E00E9435010E942D013C
:1005700008950E94AB020E949D020E948F0286EAAB
:1005800060E041E020E531E00E94660208951F939B
:10059000CF93DF938DE490E00E94530084E690E0D7
:1005A0000E94150178948DE00E946F008AE00E94FD
:1005B0006F0083E191E00E9485008DE00E946F0052
:1005C0008AE00E946F0081E087B93B9A439A0E94BB
:1005D000B9020E94F40111E0CCE2D1E00E945E0277
:1005E0000E94060288B1812788B980ED97E0FE015C
:1005F0003197F1F70197D9F7F1CFAA1BBB1B51E156
:1006000007C0AA1FBB1FA617B70710F0A61BB70B82
:10061000881F991F5A95A9F780959095BC01CD0127
:100620000895FB019F01E8944230C4F04532B4F4D0
:100630004A3029F497FB1EF4909581959F4F642FC3
:1006400077270E94FD02805D8A330CF0895D8193DB
:10065000CB010097A1F716F45DE251931082C90116
:100660000C943203DC01FC01672F71917723E1F7D1
:10067000329704C07C916D9370836291AE17BF076F
:08068000C8F30895F894FFCFC0
:100688004144584C204F4B00583D0020593D002014
:0A0698005A3D005354415254000033
:00000001FF
